:020000040800F2
:10000000580D0020ED010008711300086912000866
:100010006D1300082D0300084924000800000000AB
:10002000000000000000000000000000E11A0008CD
:100030003103000800000000DD1A0008A91B0008B9
:10004000070200080702000807020008070200086C
:10005000070200080702000835030008070200082D
:10006000070200080702000807020008070200084C
:10007000070200080702000807020008070200083C
:10008000070200080000000007020008070200083D
:10009000070200080702000807020008070200081C
:1000A000070200080702000807020008070200080C
:1000B00007020008070200080702000807020008FC
:1000C00007020008070200080702000807020008EC
:1000D000070200083D240008070200080702000884
:1000E00007020008070200080702000807020008CC
:1000F00007020008070200080702000800000000CD
:1001000000000000070200080000000007020008CD
:1001100007020008000000000702000807020008AC
:10012000070200080702000807020008070200088B
:10013000070200080000000000000000070200089D
:10014000070200080702000800000000000000008D
:10015000000000000000000000000000000000009F
:10016000000000000000000000000000070200087E
:10017000070200080000000000000000000000006E
:10018000000000000702000800000000000000005E
:10019000000000000000000000000000000000005F
:1001A000000000000000000007020008070200082D
:1001B000070200080702000807020008000000000C
:1001C000000000000702000800000000000000001E
:1001D0000702000807020008DFF80CD000F094F8CE
:1001E000004800474D240008580D0020064880476D
:1001F00006480047FEE7FEE7FEE7FEE7FEE7FEE70C
:10020000FEE7FEE7FEE7FEE7B91B0008D90100089C
:100210002DE9F05F0546002092469B46884606463B
:10022000814640241BE0284641464746224600F0CE
:100230005AF853465A46C01A914110D311461846EF
:10024000224600F041F82D1A67EB01084F4622467E
:100250000120002100F038F817EB00094E41201E64
:10026000A4F10104DFDC484631462A464346BDE896
:10027000F09FD2B201E000F8012B491EFBD270477B
:100280000022F6E710B513460A4604461946FFF762
:10029000F0FF204610BD30B505462A460B4612F841
:1002A000010B13F8014B08B1A042F8D01CB1002893
:1002B00002D06D1CF1E7284630BD421C10F8011B2E
:1002C0000029FBD1801A7047202A04DB203A00FA6B
:1002D00002F1002070479140C2F1200320FA03F39D
:1002E000194390407047202A04DB203A21FA02F09B
:1002F0000021704721FA02F3D040C2F12002914060
:100300000843194670470000064C074D06E0E068B8
:1003100040F0010394E8070098471034AC42F6D34C
:10032000FFF75EFF002E0008202E0008FEE7000009
:1003300070470000012000F063B800007047000023
:1003400080B590F8251002292ED10168D0E910CE91
:10035000826C0B6823F00E030B600B6823F0010323
:100360000B60116821F4807111600EF01F020121F1
:1003700001FA02F2CCF80420D0E913325A60426D3F
:1003800032B1136823F480731360D0E916235360ED
:1003900080F82510826B002180F824100AB1904764
:1003A0000021084680BD00BF0421C1630121002255
:1003B00080F8251080F82420084680BDB0B504469A
:1003C00000F000F9054640F20000C2F2000040686B
:1003D000611C18BF044400BF00F0F4F8401BA042A9
:1003E000FAD3B0BD40F2B000C2F20000817800291B
:1003F00018BF70474FF48071A0F8011001F072BB74
:1004000040F21441C4F201010A68024214BF0860BC
:100410007047FFF7E7BF00002DE9F04F82B041F2CF
:100420000042C4F6000290420A684FF0060308BF7B
:100430000523002A009300F0BB8000F138434FEA07
:10044000B32740F2004A009BC4F2010A052F38BFCF
:100450003B464FF0010E002500260127009309E0DE
:100460000A68043632FA07F307F1010705F10205BD
:1004700000F09E80A7F1010C0EFA0CF912EA0908AF
:10048000EED04A6842F01004122C15D16FF003022E
:1004900002EA5C020244D2F820B006F01C030F24EA
:1004A000D1F810E09C402BEA04040EFA03F3234336
:1004B00013624A684FF0010E03680324AC406FEAF0
:1004C000040BA34302F00304AC402343122A03604D
:1004D00013D80EFA02F313F0061F0ED08368CC680F
:1004E00003EA0B03AC40234383604368140923EA07
:1004F000090304FA0CF423434360C3688C6803EADD
:100500000B03AC402343D200C360A9D541F2600382
:10051000C4F202031A684FF6084942F001021A6059
:100520001A68CFF6FF7902F001020192019A2CF0CD
:100530000302524452F809C006F00C040F23A340F2
:100540002CEA030C009B03FA04F444EA0C0342F87F
:100550000930DAF800C04B684CEA0804DA0358BFE7
:100560002CEA0804CAF80040DAF804C09A034CEAFE
:10057000080458BF2CEA0804CAF80440DAF808C096
:10058000DA024CEA080458BF2CEA080440F20C4C8A
:10059000CAF80840C4F2010CDCF800209B0242EAD1
:1005A000080458BF22EA0804CCF8004058E700BF0E
:1005B00002B0BDE8F08F00001823002A08BF2823EE
:1005C000C150704740F65010C2F2000000687047FA
:1005D00040F2000040F65011C2F20000C2F20001E9
:1005E00040680A68104408607047000080B5032026
:1005F00000F090F8002000F009F800281CBF01204E
:1006000080BD00F029F8002080BD000070B540F2E8
:100610000006C2F200067168E1B1044640F2A8008B
:10062000C2F200004FF47A720068B2FBF1F1B0FB45
:10063000F1F000F01FFA0F2C4FF0010508D838B97F
:100640004FF0FF3021460022002500F037F83460DB
:10065000284670BD012070BD82B041F25800C4F23E
:100660000200816841F001018160816801F00101AF
:1006700001910199016841F080510160006800F02A
:1006800080500090009847F20800C4F20000016812
:1006900021F48041016002B070470000002848BF8B
:1006A000704700F01F01012202FA01F14EF2001220
:1006B0004009CEF2000242F82010704710B54EF605
:1006C0000C5CCEF2000CDCF80030C3F3022E8EF08E
:1006D0000704042C28BF0424BEF103034FF0FF3E9F
:1006E0000EFA04F438BF0023A14399400EFA03F335
:1006F0009A43114300F00F02043A624409010C329C
:1007000000F16043B0F1FF3FC8BF03F564421170D0
:1007100010BD00004EF60C51CEF200010A684FF6F3
:10072000FF031A4060F30A2242F0806040F0FD703F
:10073000086070472DE9F04182B00446807841F2AC
:1007400088060007C4F2020602D400202FE000BF92
:1007500056F8300C10F080580BD156F8300C40F0A1
:10076000805046F8300C56F8300C00F08050019064
:10077000019847F20007C4F20007386840F480701F
:100780003860FFF71FFF05463868C00500F1D680C6
:10079000FFF718FF401B0228F6D90320B8F1000F1D
:1007A00005D156F8301C21F0805146F8301C2168E4
:1007B000CA0713D18A0719D44A071FD40A0725D4B8
:1007C0008A062BD44A0631D40A0637D4CA053DD44A
:1007D0008A0543D44A0549D457E000BF32686368AC
:1007E00022F003021A4332608A07E5D53268A36813
:1007F00022F00C021A4332604A07DFD53268E36800
:1008000022F030021A4332600A07D9D532682369D0
:1008100022F0C0021A4332608A06D3D53268636977
:1008200022F440621A4332604A06CDD53268A36989
:1008300022F440521A4332600A06C7D53268E3698F
:1008400022F440421A433260CA05C1D53268236A95
:1008500022F440321A4332608A05BBD53268636A9B
:1008600022F440221A4332604A050ED53268A36A48
:1008700022F440121A43B3F5801F326005D156F8B6
:100880007C2C42F4801246F87C2C0A050ED5326886
:10089000E36A22F440021A43B3F5800F326005D1B7
:1008A00056F87C2C42F4801246F87C2CCA040ED5F3
:1008B0003268236B22F040721A43B3F1807F3260BA
:1008C00005D156F87C2C42F4801246F87C2C8A0420
:1008D0000ED53268636B22F040621A43B3F1006FA9
:1008E000326005D156F87C2C42F4801246F87C2CFC
:1008F0004A040ED53268A36B22F040621A43B3F16A
:10090000006F326005D156F87C2C42F4801246F814
:100910007C2C09040ED53168E26B21F04051114363
:10092000B2F1805F316005D156F87C1C41F4803112
:1009300046F87C1C02B0BDE8F08100BFB06810F43E
:10094000407010D0216C88420BD0B068B16820F4A0
:10095000407041F48031B160B16821F48031B16000
:10096000B060C0070CD1B068216C20F4407008431F
:10097000B0600020B8F1000F7FF419AF11E700BF9D
:10098000FFF720FE054641F2883700BFB0688007B8
:10099000E9D4FFF717FE401BB842F7D9FDE6000087
:1009A00040F2A80041F20801C2F20000C4F20201C4
:1009B0000068096842F2D262C1F30221C0F6000267
:1009C000515C01F01F01C8407047000040F2A800D0
:1009D00041F20801C2F20000C4F202010068096895
:1009E00042F2D262C1F3C221C0F60002515C01F0B2
:1009F0001F01C8407047000041F20C01C4F202011F
:100A000051F8040C42F20042C0F2F40200F00C0073
:100A10000428104608BF704751F8040C00F00C0081
:100A2000082841F20020C0F27A0021D051F8043C9D
:100A300003F00C030C2B1CBF00207047D1F800C042
:100A40000B680CF0030CC3F303130133BCF1030F69
:100A500008BF02460868B2FBF3F20968C0F306203B
:100A60005043C1F34161022202EB4101B0FBF1F0BE
:100A700070470000411E0020B0EB116F1CBF012029
:100A800070474EF21002CEF2000251604EF6235132
:100A9000CEF20001F0230B700721906011607047C7
:100AA00090F87C10012904BF022070472421C0F86F
:100AB000801002681168136823F00103136021F0AD
:100AC00000530021416613602022C0F8802080F886
:100AD0007C1008467047000070470000B0B590F8E1
:100AE0007C20012A04BF0220B0BD2422C0F880204F
:100AF0000268D0F864E0D2F800C01368BEF1000FBD
:100B000023F001031360936823F0606341EA03015B
:100B1000916019D09368916842F6DC4E490FC0F697
:100B2000000E42F6E4451EF80140C0F60005695C7F
:100B3000C3F34263E400B4FBF1F11EF80340EB5C45
:100B4000E500B5FBF3F301E001210123A0F86A10F1
:100B50002021A0F86830C2F800C0C0F88010002141
:100B600080F87C100846B0BDB0B590F87C20012A12
:100B700004BF0220B0BD2422C0F880200268D0F853
:100B800064E0D2F800C01368BEF1000F23F0010347
:100B90001360936823F0604341EA0301916019D028
:100BA0009368916842F6DC4E490FC0F6000E42F69B
:100BB000E4451EF80140C0F60005695CC3F34263DA
:100BC000E400B4FBF1F11EF80340EB5CE500B5FB7B
:100BD000F3F301E001210123A0F86A102021A0F81D
:100BE0006830C2F800C0C0F88010002180F87C1086
:100BF0000846B0BD70470000704700007047000015
:100C000070B501680446CA690E688B6802F02F054A
:100C1000202D09D106F0200503F08050401910D096
:100C2000E16E00294DD170BD5FEA027C09D0012040
:100C3000C1F2000003EA000E06F4907010EB0E0003
:100C400028D1D0020AD513F4800007D04FF48012C7
:100C500020460A62BDE87040FFF7CEBF100605D5FA
:100C600006F0800003F40003C01827D150061BD5FE
:100C700016F0400018D0086820F0400008602020DE
:100C80000021C4F8800020462167BDE8704000F0D4
:100C9000E9BA00BFD00718BF16F4807022D19007C0
:100CA00003F001052AD432E010020FD516F080407F
:100CB0000CD02046BDE87040FFF79CBF216F002993
:100CC000B1D02046BDE87040084700BFD001AAD58A
:100CD000B6F1FF3FC8BF70BD2046BDE87040FFF7CA
:100CE000FBBE00BF01200862D4F8880040F001007C
:100CF000C4F88800900703F0010508D53DB1022033
:100D00000862D4F8880040F00400C4F88800500756
:100D100008D53DB104200862D4F8880040F00200F4
:100D2000C4F88800BCF1000F0CD506F0200050EA92
:100D30000E0007D008200862D4F8880040F00800B0
:100D4000C4F88800D4F8880000283FF46CAF12F093
:100D500020001EBF06F0200003F0805210EB0200BE
:100D60003ED1D4F888008A6800F0080002F0400202
:100D7000801807D12046FFF741FF0020C4F8880003
:100D800070BD00BF08684FF6FE7220F490700860D6
:100D90008868CEF6FF72104088602020C4F8840076
:100DA0000020E0668868400614D5886820F040007E
:100DB0008860A06F70B141F64551C0F600018163B3
:100DC000FFF7BEFA00283FF42EAFA06F816BBDE89D
:100DD000704008472046BDE87040FFF70FBF00BFD6
:100DE000E26E002ABDD0204690472168B9E7000096
:100DF00010B5B0B10446D0F8800028B9002084F8BE
:100E00007C00204600F028F82420C4F880002068E8
:100E1000016821F001010160204601F0BDF80128C0
:100E200002D1012010BD00BFA06A10B1204600F021
:100E3000D1FE2168486820F490404860886820F01E
:100E40002A008860086840F0010220460A60BDE878
:100E5000104000F033BF000080B586B0006843F654
:100E60000001C4F20101884202D006B080BD00BF7B
:100E700041F24C00C4F20200416941F480414161F9
:100E8000416901F4804101910199016841F0020139
:100E90000160006801A900F0020001900198C020E3
:100EA0000190022002900020CDE903000720059068
:100EB00040F20040C4F60000FFF7AEFA2520002102
:100EC0000022FFF7FBFB2520FFF7E8FB06B080BD03
:100ED00010B5D0F88430202B0CD100294FF001033D
:100EE00018BF002A02D1184610BD00BF90F87C3010
:100EF000012B01D1022010BD8165A0F85C20A0F873
:100F00005E20D0F808E0BEF1000F0BD0BEF1805F8C
:100F10000CD0BEF5805F0DD103692BB940F2FF13F1
:100F20000BE000BF03693BB9FF2306E003691BB177
:100F30003F2302E0002300E07F23A0F8603000237D
:100F4000C0F888302223C0F88430D0F800C0416E49
:100F5000634653F8084FB1F1005F44F001041C6090
:100F600003D1B0F86810914210D9BEF5805F01D16D
:100F70000169A9B141F69161C0F60001C166002185
:100F800080F87C104FF4907063461FE0BEF5805FE0
:100F900001D1016951B141F6ED61C0F6000109E0EE
:100FA00041F68D51C0F60001E8E700BF41F6E95176
:100FB000C0F60001C166002180F87C10DCF800005A
:100FC00040F48070CCF800004FF08050196808435E
:100FD00018600023184610BD40F2C441C2F200015F
:100FE000884218BF7047B0B540F2B005C2F20005A4
:100FF0006979EA8840F2C400C2F200008154511CB1
:10100000E9806A790A2A44D189B20024445442F61C
:10101000E851C0F600016C81FFF73DF958B940F284
:10102000C40042F6CF51C2F20000C0F60001FFF743
:1010300032F9C8B3012442F28E60C0F60000005DB0
:101040002871062000F048FA28796F2808D0662811
:1010500014D142F6E454C0F60004012205E000BFBA
:1010600042F6FD54C0F60004002240F20040C4F6EF
:1010700000001021FFF7A0FA04E000BF42F6C454BC
:10108000C0F60004002006212246002400F038FCAF
:10109000EC8040F2C440691DC2F200000122BDE8AC
:1010A000B040FFF715BF00BF0020C9E72DE9F043AE
:1010B00081B00546044655F8800F20280DD10F4613
:1010C00000294FF0010000F0C9801646002A00F008
:1010D000C58094F87C00012804D1022001B0BDE84D
:1010E000F08300BF012084F87C004FF0000921202C
:1010F0009846C4F88890C4F88000FFF763FAA4F813
:101100005460A4F85660A1680646B1F5805F05D129
:101110002069002814BF3846B9460746B4F856007F
:1011200000283BD018F101003AD0B8F1000F06D1E9
:10113000216828E0FFF746FA801B40457AD82168ED
:10114000C8690006F6D51FB117F8010B05E000BF0E
:1011500039F8020B00276FF35F208862B4F856005D
:101160000138A4F85600B4F856000028E8D13AE057
:1011700017F8010B8862B4F856000138A4F856003D
:10118000B4F8560078B3C869000651D5002FEFD1E6
:1011900039F8020B00276FF35F20EBE7216822E0AC
:1011A000216802E0C869000609D4C869000606D4AF
:1011B000C86900065CBFC8695FEA0060F2D51FB16C
:1011C00017F8010B05E000BF39F8020B00276FF399
:1011D0005F208862B4F856000138A4F85600B4F8CD
:1011E00056000028E1D1C86940061ED4B8F1000FAE
:1011F0001ED018F101000FD1C869400615D4C86986
:10120000400612D4C86940060FD4C86940064FF0A2
:101210000000F1D51DE000BFFFF7D4F9801B404569
:1012200008D82068C0694006F6D5002011E000BF4C
:10123000FFF7C8F9206804F18405016821F4D07132
:101240000160816821F0010181602020C4F88000E4
:10125000032020212960002184F87C1001B0BDE822
:10126000F083000070470000FEE70000F0B587B093
:10127000002541F24C000695C4F20200016840F2DC
:10128000004441F0200101600168C4F6000401F04F
:101290002001019101990168012241F001010160E1
:1012A0000168102601F001010191019901680127EF
:1012B00041F0020101600068102100F0020001907D
:1012C00001982046FFF778F902A92046CDE9026788
:1012D000CDE90455FFF7A0F807B0F0BD80B540F2A6
:1012E000C44043F60001C2F20000C4F201014FF411
:1012F000E132002380E80E0030214FF00C0C8162B7
:101300004FF480514FF40052C0E90333C0E905C3E4
:10131000C361C0E90833C0E90F12FFF769FD002877
:1013200018BFFFF70BF840F2C440C2F200000021E2
:10133000FFF71AFC002818BFFFF700F840F2C4407E
:10134000C2F200000021FFF7C9FB002818BFFEF71A
:10135000F5FF40F2C440C2F20000FFF7A1FB0028F5
:1013600008BF80BDBDE88040FEF7E8BFFEE7000093
:101370007047000010B5B0200021002400F0DCFA16
:101380000020002100F0D8FA1020002100F0D4FA4B
:101390000020012100F0D0FA601C44B2B4F1FF3FFC
:1013A000F6DCB1200021002400F0C6FA0020002164
:1013B00000F0C2FA1020002100F0BEFA0020012146
:1013C00000F0BAFA601C44B2B4F1FF3FF6DCB22080
:1013D0000021002400F0B0FA0020002100F0ACFA57
:1013E0001020002100F0A8FA0020012100F0A4FA4A
:1013F000601C44B2B4F1FF3FF6DCB32000210024AE
:1014000000F09AFA0020002100F096FA1020002146
:1014100000F092FA0020012100F08EFA601C44B224
:10142000B4F1FF3FF6DCB4200021002400F084FA80
:101430000020002100F080FA1020002100F07CFA4A
:101440000020012100F078FA601C44B2B4F1FF3FA3
:10145000F6DCB5200021002400F06EFA0020002107
:1014600000F06AFA1020002100F066FA0020012145
:1014700000F062FA601C44B2B4F1FF3FF6DCB62023
:101480000021002400F058FA0020002100F054FA56
:101490001020002100F050FA0020012100F04CFA49
:1014A000601C44B2B4F1FF3FF6DCB72000210024F9
:1014B00000F042FA0020002100F03EFA1020002146
:1014C00000F03AFA0020012100F036FA601C44B224
:1014D000B4F1FF3FF6DC10BD10B5072888BF10BD82
:1014E0005038C0B20021002400F026FA002000216C
:1014F00000F022FA1020002100F01EFA0020012145
:1015000000F01AFA601C44B2B4F1FF3FF6DC10BDE3
:10151000F0B587B0002641F24C000696C4F20200F6
:10152000016840F2004441F0020101600168C4F624
:10153000000401F0020101910199016802AD41F03E
:10154000010101600068012700F00100019001988D
:101550004FF44050029020462946CDE90376059687
:10156000FEF75AFF20464FF440510122FFF724F8BE
:101570004FF44070CDE902074FF090402946CDE985
:101580000466FEF749FF4FF090404FF4407101228E
:10159000FFF712F86420FEF711FFAE20002100F0E3
:1015A000CBF90020002100F0C7F91020002100F045
:1015B000C3F94020002100F0BFF98120002100F094
:1015C000BBF9CF20002100F0B7F9A120002100F0E5
:1015D000B3F9C820002100F0AFF9A620002100F0E7
:1015E000ABF9A820002100F0A7F93F20002100F06E
:1015F000A3F9D320002100F09FF90020002100F082
:101600009BF9D520002100F097F9F020002100F08F
:1016100093F9D920002100F08FF9F120002100F08A
:101620008BF9DA20002100F087F91220002100F068
:1016300083F9DB20002100F07FF94020002100F039
:101640007BF92020002100F077F90220002100F032
:1016500073F98D20002100F06FF91420002100F0B3
:101660006BF9A420002100F067F9A620002100F00A
:1016700063F9AF20002100F05FF9AF20002100F0F6
:101680005BF9FFF777FEB020002100F055F910203C
:10169000002100F051F90120002100F04DF907B0C0
:1016A000F0BD0000F0B581B00646A1F150000C4637
:1016B000C0B20021174600F03FF9300900F11005D3
:1016C0002846002100F038F906F00E00461C30468E
:1016D000002100F031F940F20801C2F20001780166
:1016E000085C01EB4717012100F026F97878012109
:1016F00000F022F9B878012100F01EF9F8780121F4
:1017000000F01AF93879012100F016F978790121F1
:1017100000F012F9B879012100F00EF9F8790121F1
:1017200000F00AF9387A012100F006F9787A0121EF
:1017300000F002F9B87A012100F0FEF8F87A0121F0
:1017400000F0FAF8387B012100F0F6F8787B0121EF
:1017500000F0F2F8B87B012100F0EEF8F87B0121EF
:1017600000F0EAF8A4F14F00C0B2002100F0E4F864
:101770002846002100F0E0F83046002100F0DCF8B7
:10178000387C012100F0D8F8787C012100F0D4F8F1
:10179000B87C012100F0D0F8F87C012100F0CCF8F1
:1017A000387D012100F0C8F8787D012100F0C4F8EF
:1017B000B87D012100F0C0F8F87D012100F0BCF8EF
:1017C000387E012100F0B8F8787E012100F0B4F8ED
:1017D000B87E012100F0B0F8F87E012100F0ACF8ED
:1017E000387F012100F0A8F8787F012100F0A4F8EB
:1017F000B87F012100F0A0F8F87F012101B0BDE819
:10180000F04000F099B800002DE9F0478A460646FE
:1018100040B2002844BF0AF1020A0026AAF1500093
:10182000C0B20021A2F1200400F086F8300900F1D6
:1018300010084046002100F07FF806F00E0000F18D
:1018400001094846002100F077F8E1B242F2DA627D
:101850000801C0F60002105C02EB0114012100F047
:101860006BF86078A778E5782679012100F064F8B4
:101870003846012100F060F82846012100F05CF8AC
:101880003046012100F058F86079012100F054F849
:10189000A079012100F050F8E079012100F04CF826
:1018A000AAF14F00C0B2002100F046F840460021E6
:1018B00000F042F84846002100F03EF8207A01216D
:1018C00000F03AF8607A012100F036F8A07A0121A0
:1018D00000F032F8E07A012100F02EF8207B01219F
:1018E00000F02AF8607B012100F026F8A07B01219E
:1018F00000F022F8E07B0121BDE8F04700F01CB8C1
:10190000F0B581B0144612789AB10D46064600270C
:10191000F0B2E9B2D2B2FFF777FF0836F0B2013782
:101920007828F8B288BF0235225C88BF0026002ADA
:10193000EED101B0F0BD0000B0B540F20044C4F6F5
:1019400000040A460546002920464FF4005118BFFE
:101950000122FEF731FE20464FF480510022FEF7AF
:101960002BFE4FF090404FF400710022FEF724FE52
:10197000EA094FF090404FF48071FEF71DFE4FF0E2
:1019800090404FF400710122FEF716FE4FF0904098
:101990004FF400710022FEF70FFEC5F380124FF0E6
:1019A00090404FF48071FEF707FE4FF090404FF4E7
:1019B00000710122FEF700FE4FF090404FF40071DD
:1019C0000022FEF7F9FDC5F340124FF090404FF4AE
:1019D0008071FEF7F1FD4FF090404FF4007101224D
:1019E000FEF7EAFD4FF090404FF400710022FEF741
:1019F000E3FDC5F300124FF090404FF48071FEF705
:101A0000DBFD4FF090404FF400710122FEF7D4FD52
:101A10004FF090404FF400710022FEF7CDFDC5F36A
:101A2000C0024FF090404FF48071FEF7C5FD4FF0BB
:101A300090404FF400710122FEF7BEFD4FF0904040
:101A40004FF400710022FEF7B7FDC5F380024FF09E
:101A500090404FF48071FEF7AFFD4FF090404FF48F
:101A600000710122FEF7A8FD4FF090404FF4007185
:101A70000022FEF7A1FDC5F340024FF090404FF465
:101A80008071FEF799FD4FF090404FF400710122F4
:101A9000FEF792FD4FF090404FF400710022FEF7E8
:101AA0008BFD05F001024FF090404FF48071FEF77E
:101AB00083FD4FF090404FF400710122FEF77CFD52
:101AC00020464FF480510122FEF776FD20464FF468
:101AD00000510122BDE8B040FEF76EBD7047000026
:101AE000704700002DE9F04FC1B040F2B00400266D
:101AF00041F2873B0DF1040AC2F2000441F288383A
:101B00004FF0000905E000BFB9F1040F3BD809F11F
:101B100001091FA050F829703846FEF7CEFB82B2AB
:101B200040F2C440C2F2000039464FF0FF33FFF7E5
:101B3000BDFAFEF747FD0746FEF744FDC01B5845BA
:101B4000E2D8554605E000BFFEF73CFDC01B40450E
:101B5000DAD220780028F7D02670E07805F8010B5B
:101B6000E0780A2803D0A5EB0A00FE28ECD942F65B
:101B7000C1515046C0F600012E70FEF78CFB10B923
:101B8000B9F1050FC3D30020A07041B0BDE8F08FBC
:101B9000B32D0008312D0008EC2C00087B2D000827
:101BA0009E2D00084F2D000880B5FEF711FDBDE801
:101BB000804000F0CFB800004EF68850CEF2000012
:101BC000016841F4700101604FF0006140F8801C31
:101BD0007047000080B5816ACA070DD18A0716D404
:101BE0004A071FD40A0728D4CA0631D48A063AD431
:101BF0004A0658D542E000BF0268D0F82CC05368AE
:101C000023F4003343EA0C0353608A07E8D50268E3
:101C1000D0F830C0536823F4803343EA0C03536098
:101C20004A07DFD50268D0F834C0536823F4802314
:101C300043EA0C0353600A07D6D50268D0F838C0CF
:101C4000536823F4004343EA0C035360CA06CDD51E
:101C50000268D0F83CC0936823F4805343EA0C0335
:101C600093608A06C4D50268D0F840C0936823F414
:101C7000005343EA0C0393604A0614D50268D0F877
:101C800044C05368BCF5801F23F4801343EA0C035F
:101C9000536008D1D2F804C0D0F848E02CF4C00357
:101CA00043EA0E035360090658BF80BD0168C06C4B
:101CB0004A6822F400221043486080BD70B5044693
:101CC0000020C4F88800FEF77DFC216805460A68FC
:101CD00012070DD5C86980020AD40026FEF772FCEF
:101CE000401B2168B6EB506F18D1C8698002F5D54A
:101CF0000868400702D4002619E000BFC869002622
:101D0000400214D4FEF75EFC401B2168B6EB506F16
:101D100004D1C8694002F5D5002608E0086803260A
:101D200020F4D0700860886820F0010088602020CE
:101D3000C4F88000C4F884000021304684F87C1088
:101D400070BD0000806A0021A0F85E10A0F8561057
:101D5000FEF754BF40F2B000C2F20000418955299D
:101D600013D1C289C1888A423CBFC1817047018AB0
:101D700001318AB2322A018238BF704700214FF404
:101D8000AA020182C0F80A20C1807047B0F8602022
:101D90000168D0F88430222B20D1D1F824C0836D83
:101DA00002EA0C0223F8022B8365B0F85E20013AA8
:101DB000A0F85E20B0F85E20002A18BF70470A68BD
:101DC00022F490720A608A6822F001028A6020215F
:101DD000C0F884100021C166FFF7FEB8886940F0A2
:101DE00008008861704700002DE9F04381B0044687
:101DF000B0F86050D0F8840022282DD1B4F8686083
:101E000076B34FF6FE78CEF6FF784FF02009002724
:101E100003E000BF013E300422D02068A16D426A79
:101E20002A4021F8022BA165B4F85E100139A4F80C
:101E30005E10B4F85E100029ECD1016821F48071C5
:101E40000160816801EA080181602046C4F884903D
:101E5000E766FFF7C1F8DDE720680821183011E0D8
:101E6000B4F85E0088B1B4F8681088420DD22068DA
:101E7000816821F08051816041F68D51C0F60001EA
:101E8000E166202102681143016001B0BDE8F083E2
:101E9000B0F860100268D0F88430222B20D1526A4A
:101EA000836D11401970816D01318165B0F85E104C
:101EB0000139A0F85E10B0F85E10002918BF704715
:101EC00001680A6822F490720A608A6822F00102AE
:101ED0008A602021C0F884100021C166FFF77CB819
:101EE000906940F008009061704700002DE9F043D0
:101EF00081B00446B0F86050D0F8840022282FD179
:101F0000B4F8686086B34FF6FE78CEF6FF784FF0EF
:101F10002009002703E000BF013E300424D02068E0
:101F2000A16D406A28400870A06D0130A065B4F82A
:101F30005E000138A4F85E00B4F85E000028EBD122
:101F40002068016821F480710160816801EA08015C
:101F500081602046C4F88490E766FFF73DF8DBE730
:101F600020680821183011E0B4F85E0088B1B4F898
:101F7000681088420DD22068816821F0805181600C
:101F800041F69161C0F60001E1662021026811432B
:101F9000016001B0BDE8F083B0B50446D4E9021396
:101FA000D4E90425D4F81CE0114300682943656E88
:101FB00041EA0E012943056846F6F312CCF6FF729A
:101FC0002A401143016041684FF2FF4521F440511E
:101FD0001943416048F20003A169C4F2000398422A
:101FE0001CBF226A11438268C1F2FF152A401143C7
:101FF0008160C16AD4F824C021F00F0141EA0C01CC
:10200000C16244F6FF31C4F2000188424FF010056E
:1020100016DD44F60041C4F20001884224D0984203
:102020002AD043F60001C4F2010188423AD141F2BC
:102030008801C4F202010D680FF2F0312EE000BFFA
:1020400044F20041C4F2000188421DD044F6000170
:10205000C4F20001884225D141F28801C4F2020194
:1020600009680D0916E000BF41F28801C4F20201BF
:1020700009688D090EE000BF41F28801C4F2020137
:1020800009688D0A06E000BF41F28801C4F202012E
:1020900009688D0842F6CC41C0F6000105F0030244
:1020A00051F82250984221D0BEF5004F40D1082D62
:1020B0004FF0010000F2B181DFE815F00A00820064
:1020C0008A00AF019600AF01AF01AF01A40000BFCD
:1020D000FEF766FC616A0B2980F08C8042F2906208
:1020E000C0F6000252F8211089E000BF082D4FF021
:1020F000010000F29281DFE815F00900900139003B
:10210000900145009001900190015900FEF748FCB4
:10211000D4F824C0BCF10B0F3BD34FF0010108BF32
:102120004FF48071B0FBF1F3002B40F0B6803AE041
:10213000082D4FF0010000F27081DFE815F0090072
:102140006F0075006E0181006E016E016E018F00DF
:10215000FEF726FC616A0B2978D242F29062C0F643
:10216000000252F82110B0FBF1F0F8E0BCF10B0FC7
:1021700080F0808042F29060C0F6000050F82C00A1
:102180007DE000BFFEF738FCD4F824C0BCF10B0F93
:10219000C3D242F29061C0F6000151F82C10B0FB9E
:1021A000F1F3002B79D1002037E100BFBCF10B0F18
:1021B0006AD242F2BC60C0F6000030F81C0068E051
:1021C000FEF704FC616A0B29FFF488AF12E000BF40
:1021D000BCF10B0F80F0868042F29060C0F60000E8
:1021E00050F82C0083E000BFFEF706FC616A0B2963
:1021F000FFF474AF4FF0010108BF4FF48071B0FBE2
:10220000F1F17AE0BCF10B0F80F07C8042F2BC600F
:10221000C0F6000030F81C0079E000BFFEF7D6FBE6
:10222000616A0B2999D311E0BCF10B0F80F0848017
:1022300042F29060C0F6000050F82C0081E000BF30
:10224000FEF7DAFB616A0B29FFF487AF4FF001015B
:1022500008BF4FF48071B0FBF1F080E0BCF10B0FD0
:1022600080F0748042F2BC60C0F6000030F81C00C0
:1022700071E000BF4FF0010008BF4FF4807042F2E0
:102280000041C0F2F40106E04FF0010008BF4FF436
:1022900080704FF40041B1FBF0F3626802EB420042
:1022A00083424FF00100C0F0B88011038B4200F26E
:1022B000B480082D4FF0010000F2AF80DFE805F098
:1022C00006AD5AAD64ADADAD740000BFFEF768FB5E
:1022D000616A0B295DD34FF0010108BF4FF4807193
:1022E0005DE000BF4FF0010008BF4FF4807042F284
:1022F0000041C0F2F401B1FBF0F16068490042080E
:102300000CE000BF4FF0010008BF4FF480704FF4A5
:102310000041B1FBF0F160684A0041081144B1FB93
:10232000F0F04FF6F071014004D0C0F342000843D2
:1023300070E000BF012070E04FF0010008BF4FF4D3
:10234000807042F20041C0F2F40106E04FF001005B
:1023500008BF4FF480704FF40041B1FBF0F06168AA
:1023600000EB5100B0FBF1F080B2102852D20120F6
:1023700053E000BFBCF10B0F20D242F29060C0F6D8
:10238000000050F82C001EE0FEF736FB616A0B29B6
:10239000A1D242F29062C0F6000252F82110B0FBC6
:1023A000F1F06268010E15E0BCF10B0F1CD242F295
:1023B000BC60C0F6000030F81C001AE04FF00100CD
:1023C00008BF4FF4807042F20041C0F2F401B1FB4B
:1023D000F0F00021000210EB520041F10001002357
:1023E000FDF716FF0EE000BF4FF0010008BF4FF4ED
:1023F00080704FF40041B1FBF0F0000200EB52009E
:10240000B0FBF2F04FF60052A0F54071C0F20F029F
:10241000914209D22168C86000204FF001110022CA
:10242000C4E91A122267B0BD0120F6E701000000DE
:1024300004000000020000000800000040F2C44058
:10244000C2F20000FEF7DCBBFEE7000092B0FEF730
:10245000CDF801AC04F108003C21FDF711FF012784
:102460000026204601970296FEF764F9FEF7FEFE6D
:10247000FEF734FF40F2B005C2F2000540F2C4405E
:10248000691DC2F200000122FEF722FD41F24C005C
:10249000C4F20200016841F002010160006801A974
:1024A00000F00200019001980020C1F2110002909A
:1024B000022003904FF090400197FDF7ADFF0620FA
:1024C00002210122FEF7FAF80620FEF7E7F8FFF7EF
:1024D0001FF8FEF74FFF082000210022FFF7E2F867
:1024E000182000210122FFF7DDF85BA2282000213F
:1024F000FFF706FA482000210222FFF7D3F8582000
:1025000000210322FFF7CEF8682000210422FFF704
:10251000C9F853A213200321FFF7F2F951A21420A6
:102520000321FFF7EDF9FFF7DDFA40F2505BC2F24D
:10253000000B41F2873841F2883940F2FE3A13E04D
:1025400042F6FD570022C0F6000740F20040C4F6F4
:1025500000001021FEF730F8002006213A46FFF770
:10256000CFF98BF8006000BF58464FF48061FDF74B
:1025700087FEFEF727F80746FEF724F8C01B404504
:10258000F2D85C4605E000BFFEF71CF8C01B4845CA
:10259000EAD228780028F7D02E70E87804F8010BEA
:1025A000E8780A2803D0A4EB0B005045ECD942F69A
:1025B000C1515846C0F600012670FDF76CFE002898
:1025C000D2D042F6E8515846C0F60001FDF763FE4E
:1025D00040B19BF8000000284FF06F002871C3D075
:1025E00000201DE042F6CF515846C0F60001FDF72D
:1025F00052FE38B19BF8000000284FF066002871A9
:1026000005D1B1E79BF800002E710028ACD042F64E
:10261000CF515846C0F60001FDF73DFED0B1012074
:1026200042F28E61C0F60001085C28710620FEF7B8
:1026300053FF28796F283FF483AF42F6C4576628CA
:10264000C0F600077FF488AF42F6E4570122C0F6D7
:1026500000077AE70020E8E731323131000000005E
:102660003A00000031303231343432313030300011
:1026700002E008C8121F08C1002AFAD1704770474B
:10268000002001E001C1121F002AFBD170476F66D4
:10269000010000000200000004000000060000002D
:1026A000080000000A0000000C00000010000000FC
:1026B0002000000040000000800000000100020037
:1026C0000400060008000A000C0010002000400072
:1026D0008000000000000102030400000000000070
:1026E00000000000000000000000000000F80000F2
:1026F0000000000000333000000000100C06100C39
:102700000600000000000000000040C07840C078D3
:102710004000043F04043F040400007088FC0830BB
:102720000000001820FF211E0000F008F000E01853
:10273000000000211C031E211E0000F0088870000C
:1027400000001E2123241927211010160E0000005E
:1027500000000000000000000000000000E018047D
:102760000200000000071820400000020418E000EA
:1027700000000040201807000000404080F080402A
:1027800040000202010F01020200000000F0000000
:1027900000000101011F0101010000000000000014
:1027A000000080B070000000000000000000000089
:1027B0000000000101010101010100000000000012
:1027C00000000030300000000000000000008060C9
:1027D0001804006018060100000000E0100808104E
:1027E000E000000F102020100F00001010F8000073
:1027F00000000020203F202000000070080808880A
:1028000070000030282422213000003008888848D9
:1028100030000018202020110E000000C02010F809
:10282000000000070424243F240000F808888808DA
:1028300008000019212020110E0000E010888818DF
:102840000000000F112020110E0000380808C838C1
:1028500008000000003F00000000007088080888A1
:102860007000001C222121221C0000E0100808102A
:10287000E0000000312222110F00000000C0C00063
:102880000000000000303000000000000080000068
:102890000000000080600000000000008040201068
:1028A0000800000102040810200040404040404061
:1028B00040000404040404040400000810204080C4
:1028C00000000020100804020100007048080808F9
:1028D000F0000000003036010000C030C828E810C9
:1028E000E0000718272423140B000000C038E00084
:1028F0000000203C23020227382008F888888870CE
:102900000000203F202020110E00C03008080808D9
:102910003800071820202010080008F808080810C0
:10292000E000203F202020100F0008F88888E808E9
:102930001000203F20202320180008F88888E8088D
:102940001000203F200003000000C03008080838B5
:10295000000007182020221E020008F808000008C6
:10296000F808203F210101213F20000808F808084D
:1029700000000020203F2020000000000808F80888
:102980000800C08080807F00000008F888C02818F8
:102990000800203F20012638200008F80800000029
:1029A0000000203F20202020300008F8F800F8F830
:1029B0000800203F003F003F200008F830C000081A
:1029C000F808203F200007183F00E0100808081012
:1029D000E0000F10202020100F0008F80808080859
:1029E000F000203F210101010000E010080808105C
:1029F000E0000F18242438504F0008F88888888891
:102A00007000203F2000030C302000708808080868
:102A100038000038202121221C00180808F8080876
:102A200018000000203F2000000008F808000008FF
:102A3000F808001F202020201F000878880000C808
:102A40003808000007380E010000F80800F80008F8
:102A5000F800033C0700073C030008186880806802
:102A6000180820302C03032C30200838C800C83840
:102A700008000000203F2000000010080808C838A7
:102A800008002038262120201800000000FE020245
:102A900002000000007F40404000000C30C00000F9
:102AA0000000000000010638C00000020202FE0023
:102AB0000000004040407F000000000004020202CD
:102AC0000400000000000000000000000000000002
:102AD00000008080808080808080000202040000EE
:102AE00000000000000000000000000080808080E6
:102AF00000000019242222223F2008F800808000D4
:102B00000000003F112020110E0000000080808096
:102B10000000000E1120202011000000008080889D
:102B2000F800000E112020103F20000080808080DF
:102B30000000001F222222221300008080F08888DB
:102B400088180020203F2020000000008080808026
:102B50008000006B94949493600008F8008080805B
:102B60000000203F210000203F20008098980000B6
:102B700000000020203F20200000000000809898E6
:102B8000000000C08080807F000008F80000808086
:102B90008000203F24022D302000000808F80000AB
:102BA00000000020203F2020000080808080808066
:102BB0008000203F20003F20003F808000808080F8
:102BC0000000203F210000203F2000008080808006
:102BD0000000001F202020201F0080800080800037
:102BE000000080FFA12020110E00000000808080E6
:102BF0008000000E112020A0FF8080808000808057
:102C0000800020203F212000010000008080808083
:102C100080000033242424241900008080E0808078
:102C200000000000001F20200000808000000080C5
:102C30008000001F202020103F2080808000008026
:102C4000808000010E300806010080800080008036
:102C500080800F300C030C300F00008080008080DB
:102C600080000020312E0E31200080808000008006
:102C7000808080818E7018060100008080808080B6
:102C800080000021302C2221300000000000807CD8
:102C9000020200000000003F404000000000FF0072
:102CA000000000000000FF0000000002027C800025
:102CB00000000040403F0000000000060101020249
:102CC00004040000000000000000000000000000FC
:102CD00004000000020000000800000001010103E0
:102CE00007010000080402040801010141542B4DB2
:102CF000515454555345524346473D302C312C22B4
:102D000061656533613165636336373534626333DA
:102D1000396634383661303435396233656364304E
:102D2000222C22222C22222C302C302C22220D0A62
:102D30000041542B43574A41503D224D49582033BE
:102D4000222C223132333435363738220D0A0041F5
:102D5000542B4D5154545055423D302C2259222C65
:102D6000227375636365656420746F20636F6E6E94
:102D7000656374222C302C300D0A0041542B4D51C8
:102D80005454434F4E4E3D302C2262656D66612E89
:102D9000636F6D222C393530312C300D0A004154CF
:102DA0002B4D5154545355423D302C2259222C3135
:102DB0000D0A0041542B43574D4F44453D330D0AF6
:102DC000004F4B004E6F20636F6D6D616E64002B82
:102DD0004D515454535542524543563A302C225982
:102DE000222C332C6F6666002B4D515454535542A0
:102DF000524543563A302C2259222C322C6F6E0009
:102E0000202E000800000020B000000070260008FE
:102E1000D02E0008B0000020A80C0000802600087A
:102E2000100000000100000000F848484848FF4832
:102E3000484848FC080000000007020202023F4226
:102E40004242424740700000804020F8072424247A
:102E500025262424B4260400000000FF0001FD45BF
:102E600045454545FD0100001010D0FF901042423D
:102E7000E252CA4642E04000040300FF0021104C29
:102E800023184780403F000020222A2AAA6A3A2FAE
:102E90002A6AAA2A2A22200004040201FF49494979
:102EA0004949FF01020602000000F8888888880866
:102EB0007F880A0C08C8000040201F0008100F403F
:102EC00020131C244380F0000024F40000000000C4
:04000005080001D915
:00000001FF
