:020000040800F2
:10000000F8040020ED0100082D170008C5140008B1
:100010002917000859020008C51F00080000000049
:10002000000000000000000000000000651E000845
:100030005D02000800000000611E0008691E000843
:10004000070200080702000807020008070200086C
:10005000070200080702000807020008070200085C
:10006000070200080702000807020008070200084C
:10007000070200080702000807020008070200083C
:10008000070200080000000007020008070200083D
:10009000070200080702000807020008070200081C
:1000A00007020008891E000807020008070200086E
:1000B00007020008070200080702000807020008FC
:1000C00007020008070200080702000807020008EC
:1000D00007020008070200080702000807020008DC
:1000E00007020008070200080702000807020008CC
:1000F00007020008070200080702000800000000CD
:1001000000000000070200080000000007020008CD
:1001100007020008000000000702000807020008AC
:10012000070200080702000807020008070200088B
:10013000070200080000000000000000070200089D
:10014000070200080702000800000000000000008D
:10015000000000000000000000000000000000009F
:10016000000000000000000000000000070200087E
:10017000070200080000000000000000000000006E
:10018000000000000702000800000000000000005E
:10019000000000000000000000000000000000005F
:1001A000000000000000000007020008070200082D
:1001B000070200080702000807020008000000000C
:1001C000000000000702000800000000000000001E
:1001D0000702000807020008DFF80CD000F02AF838
:1001E00000480047C91F0008F8040020064880475F
:1001F00006480047FEE7FEE7FEE7FEE7FEE7FEE70C
:10020000FEE7FEE7FEE7FEE76D1E0008D9010008E5
:10021000D2B201E000F8012B491EFBD27047002248
:10022000F6E710B513460A4604461946FFF7F0FFF5
:10023000204610BD064C074D06E0E06840F0010383
:1002400094E8070098471034AC42F6D3FFF7C8FF94
:10025000B0260008D0260008FEE700007047000026
:1002600070470000B0B5044600F0E6F8054640F2DD
:100270000000C2F200004068611C18BF044400BFC7
:1002800000F0DAF8401BA042FAD3B0BD2DE9F04FE0
:1002900082B041F20042C4F6000290420A684FF078
:1002A000060308BF0523002A009300F0BB8000F17D
:1002B00038434FEAB32740F2004A009BC4F2010AD8
:1002C000052F38BF3B464FF0010E002500260127C1
:1002D000009309E00A68043632FA07F307F10107D0
:1002E00005F1020500F09E80A7F1010C0EFA0CF951
:1002F00012EA0908EED04A6842F01004122C15D117
:100300006FF0030202EA5C020244D2F820B006F069
:100310001C030F24D1F810E09C402BEA04040EFAD1
:1003200003F3234313624A684FF0010E036803246A
:10033000AC406FEA040BA34302F00304AC40234338
:10034000122A036013D80EFA02F313F0061F0ED020
:100350008368CC6803EA0B03AC40234383604368A3
:10036000140923EA090304FA0CF423434360C36825
:100370008C6803EA0B03AC402343D200C360A9D5C9
:1003800041F26003C4F202031A684FF6084942F0D2
:1003900001021A601A68CFF6FF7902F00102019299
:1003A000019A2CF00302524452F809C006F00C04E2
:1003B0000F23A3402CEA030C009B03FA04F444EA45
:1003C0000C0342F80930DAF800C04B684CEA080424
:1003D000DA0358BF2CEA0804CAF80040DAF804C06F
:1003E0009A034CEA080458BF2CEA0804CAF80440EF
:1003F000DAF808C0DA024CEA080458BF2CEA08040C
:1004000040F20C4CCAF80840C4F2010CDCF80020A1
:100410009B0242EA080458BF22EA0804CCF80040D4
:1004200058E700BF02B0BDE8F08F00001823002A93
:1004300008BF2823C150704740F2F400C2F2000008
:100440000068704740F2000040F2F401C2F2000080
:10045000C2F2000140680A6810440860704700005A
:1004600080B5032000F090F8002000F009F8002883
:100470001CBF012080BD00F029F8002080BD0000D5
:1004800070B540F20006C2F200067168E1B10446A0
:1004900040F2A800C2F200004FF47A720068B2FB8A
:1004A000F1F1B0FBF1F000F0F5FC0F2C4FF001057D
:1004B00008D838B94FF0FF3021460022002500F05F
:1004C00037F83460284670BD012070BD82B041F21B
:1004D0005800C4F20200816841F001018160816826
:1004E00001F0010101910199016841F08051016021
:1004F000006800F080500090009847F20800C4F2B5
:100500000000016821F48041016002B070470000E2
:10051000002848BF704700F01F01012202FA01F1D4
:100520004EF200124009CEF2000242F8201070474D
:1005300010B54EF60C5CCEF2000CDCF80030C3F3C4
:10054000022E8EF00704042C28BF0424BEF10303FE
:100550004FF0FF3E0EFA04F438BF0023A143994048
:100560000EFA03F39A43114300F00F02043A624477
:1005700009010C3200F16043B0F1FF3FC8BF03F541
:100580006442117010BD00004EF60C51CEF2000115
:100590000A684FF6FF031A4060F30A2242F08060B7
:1005A00040F0FD7008607047B0F5007F42D0002831
:1005B00040F0808047F21400C4F2000050F8141C90
:1005C000C26E01F4C06122F48072B1F5806FC26620
:1005D0002ED150F8141C012262F34A2140F8141C59
:1005E00040F2A801C2F200010968322251434DF6DF
:1005F0008362C4F21B32A1FB0212910C0268520505
:1006000011D54A1C0FD0026852050CD559B10268A9
:10061000520508D5012906D00268520503D50229E2
:10062000A1F10401EAD10068400544BF03207047EE
:100630000020704747F21400C4F2000050F8141C68
:10064000C26E01F4C06142F48072B1F5806FC2667F
:10065000EED150F8141C012262F34A2140F8141C18
:1006600040F2A801C2F200010968322251434DF65E
:100670008362C4F21B32A1FB0212910C0268520584
:1006800011D54A1C0FD0026852050CD559B1026829
:10069000520508D5012906D00268520503D5022962
:1006A000A1F10401EAD10068400544BF032070476E
:1006B000BEE700BF47F21400C4F2000050F8141C5B
:1006C000022262F34A2140F8141C00207047000007
:1006D0002DE9F04700286DD042F2000AC4F2020A68
:1006E0000446DAF800000D4600F00F0088420CD2F4
:1006F000DAF8000020F00F002843CAF80000DAF80A
:10070000000000F00F00A84254D1216841F208080F
:10071000C807C4F2020803D1880740F1D880BDE0C1
:10072000606802283AD0032840D158F8082C92017A
:1007300040D5D8F80420D8F8043042F2004702F03F
:100740000302C3F30313C0F2F4070133032A04BF07
:1007500041F20027C0F27A07D8F80420B7FBF3F380
:10076000D8F80470C2F306225A43C7F34163022744
:1007700007EB4303B2FBF3F24BF20043C0F2C44376
:100780009A4261D9D8F8002012F0F00F51D08907B1
:100790005AD5A168002957D14BE000BF58F8081C72
:1007A00089035CBF0120BDE8F08707E058F8081C0A
:1007B000490503D40120BDE8F08700BFD8F8001038
:1007C00001F00C0104293FD0D8F8001001F00C0111
:1007D000082939D0D8F8001001F00C010C2933D1C8
:1007E000D8F80410D8F8042042F2004301F00301C5
:1007F000C2F30312C0F2F4030132032904BF41F231
:100800000023C0F27A03D8F80410B3FBF2F2D8F850
:100810000430C1F306215143C3F34162022303EBC9
:100820004202B1FBF2F14BF20042C0F2C4429142EB
:100830000AD9D8F80010082262F307114FF0010915
:10084000C8F8001002E000BF4FF00009D8F800100F
:1008500021F003010843C8F80000FFF7EDFD06464C
:1008600041F28837D8F80000616800F00C00B0EB66
:10087000810F07D0FFF7E0FD801BB842F2D90320BB
:10088000BDE8F0872168880708D4B9F1000F1ED0B1
:10089000D8F8000020F0F00017E000BF480705D5A9
:1008A000D8F8000040F4E060C8F80000080706D55A
:1008B000D8F80000072262F30D20C8F80000D8F82D
:1008C0000000A26820F0F0001043C8F80000DAF839
:1008D000000000F00F00A8421BD9DAF8000020F059
:1008E0000F002843CAF80000FFF7A6FD064641F2B4
:1008F000883700BFDAF8000000F00F00A84207D0E8
:10090000FFF79AFD801BB842F4D90320BDE8F087B9
:100910002168480707D5D8F80000E26820F4E060B5
:100920001043C8F80000080708D5D8F8000021696E
:1009300020F4605040EAC100C8F80000D8F8000078
:1009400042F20041C0F2F40100F00C000428084615
:100950002DD0D8F8000000F00C00082841F200204B
:10096000C0F27A0023D0D8F8002002F00C020C2A42
:100970001CD1D8F80420D8F8043002F00302C3F3E5
:1009800003130133032A08BF0146D8F80400B1FB62
:10099000F3F1D8F80420C0F306204843C2F34161C4
:1009A000022202EB4101B0FBF1F000E00020D8F898
:1009B000001042F2AE02C1F30311C0F60002515C16
:1009C00040F2A80201F01F0120FA01F140F20000FC
:1009D000C2F200000068C2F200021160BDE8F047F8
:1009E000FFF74EBD2DE9F04182B0002800F00681EE
:1009F0000446007841F20006C007C4F2020655D151
:100A00002078800774D42078000700F19780207840
:100A1000400700F1B7802078800600F10781E06987
:100A2000002840D0B16801F00C010C2940F056813B
:100A3000012800F0E380F068216A00F003028A4296
:100A400040F0DC80626A6FF00F0300F0F00103EB0E
:100A50000212914240F0D280A16A00F4FE42B2EB51
:100A6000012F40F0CB80E16A00F07842B2EBC16F19
:100A700040F0C480226B0023CFF6E07303EB0252F8
:100A800000F4C0016FF31402914240F0B780616B33
:100A90004FF07E4202EB016100F0C06001F07E4148
:100AA000884240F0AB800020F1E100BFB06800F068
:100AB0000C01F06808295BD0032281F00C0122EAC6
:100AC00000000844B0FA80F0400951D16068B0F5E8
:100AD000803F07D0B0F5A02F40F0D680306840F4BA
:100AE00080203060306840F480303060D7E000BF54
:100AF000B068F16800F00C00042869D001F003012F
:100B000080F00C0081F002010844B0FA80F0400946
:100B10005ED1E1683068002900F0CE8040F480703A
:100B20003060FFF789FC05463068400500F1EC8035
:100B3000FFF782FC401B0228F6D920E16169D6F854
:100B40009400002900F08C8040F00100C6F8940069
:100B5000FFF772FC054600BFD6F8940080073FF50A
:100B600056AFFFF769FC401B0228F5D907E100BF2B
:100B7000306880037FF544AF606800287FF440AFA1
:100B80003CE000BFB06D10F0805808D1B06D40F06F
:100B90008050B065B06D00F080500190019847F230
:100BA0000007C4F200073868C0052BD4386840F449
:100BB00080703860FFF740FC054600BF3868C0050C
:100BC00020D4FFF739FC401B0228F7D9D7E000BF3B
:100BD0003068400501D5E06880B17068216920F077
:100BE000FE4040EA0160706040F20000C2F2000086
:100BF0000068FFF745FC00283FF405AF012002B074
:100C0000BDE8F081A068012808D0052840F09A804E
:100C1000D6F8900040F00400C6F89000D6F8900096
:100C200040F00100C6F890009AE000BFA169D6F834
:100C30009800002970D040F00100C6F89800FFF736
:100C4000FBFB0546D6F8980080073FF5E8AEFFF7B6
:100C5000F3FB401B02284FF00300F3D917E100BF5C
:100C600020F00100C6F89400FFF7E6FB054600BF40
:100C7000D6F8940080077FF5CAAEFFF7DDFB401B76
:100C80000228F5D97BE000BF3168002821F48031CB
:100C90003160316821F48021316000F08F80FFF7EE
:100CA000CBFB0546306880033FF5AAAEFFF7C4FBD7
:100CB000401B6428F6D962E020F480703060FFF7B2
:100CC000BBFB0546306840057FF59DAEFFF7B4FBE2
:100CD000401B02284FF00300F4D9D8E03168022805
:100CE00021F0807131604FD1FFF7A6FB054600BFB0
:100CF0003068800140F18E80FFF79EFB401B022888
:100D00004FF00300F4D9C2E07068216920F0FE4082
:100D100040EA0160706076E620F00100C6F89800B5
:100D2000FFF78AFB054600BFD6F8980080077FF5DD
:100D300076AEFFF781FB401B02284FF00300F3D98A
:100D4000A5E000BFD6F89010002821F00101C6F8F8
:100D50009010D6F8901021F00401C6F890103DD004
:100D6000FFF76AFB054641F2883700BFD6F89000CE
:100D7000800745D4FFF760FB401BB842F6D903203B
:100D800002B0BDE8F08100BFF0684FF6FF7120F0BF
:100D90000300F060F068CFF6EE610840F060FFF706
:100DA0004BFB0446306880017FF57DAEFFF744FBC6
:100DB000001B02284FF00300F4D968E0FFF73CFB6A
:100DC000054600BF306880037FF51AAEFFF734FB9D
:100DD000401B64284FF00300F4D958E0FFF72CFBC8
:100DE000054641F2883700BFD6F89000800707D546
:100DF000FFF722FB401BB8424FF00300F4D946E056
:100E0000B8F1000F7FF407AEB06D20F08050B065F0
:100E100001E600BFF06848F20C01C0F29F1104F136
:100E2000200700EA010C8ECF6FF00F00D4E90C54BC
:100E300000EB02100022CFF6E07241EA0C0102EB57
:100E4000055208436FF314024FF07E4540EA032039
:100E500005EB0465104305F07E4540EAC760284372
:100E6000F060306840F080703060F06840F0807072
:100E7000F060FFF7E1FA0446306880013FF513AEF9
:100E8000FFF7DAFA001B02284FF00300F4D902B092
:100E9000BDE8F081411E0020B0EB116F1CBF0120A6
:100EA00070474EF21002CEF2000251604EF623510E
:100EB000CEF20001F0230B700721906011607047A3
:100EC000704700007047000070470000F0B590F8D0
:100ED0003C20012A04BF0220F0BDD1E90232D1E951
:100EE00000CE22F47C5223F470531A4348F2FF736D
:100EF000CFF6F07303EA0E0342EA030E0A692CF4FC
:100F000077234EEA030C22F476224B6942EA0C0264
:100F10001A430B6B22F4742C23F470238A6943EA7E
:100F20000C0343EA0243026843F2004EC4F2010E8E
:100F300042F6004C7245C4F2010C01D0624503D167
:100F4000CC6923F080532343724501D0624517D109
:100F500001F12006002770CECFF6F04723F07C7316
:100F600007EA0656334324F000742343724543EAEC
:100F7000050301D0624503D1C96A23F000530B4336
:100F80000021536480F83C100846F0BD7047000013
:100F9000704700007047000010B590F83C20012A0F
:100FA0004FF002022BD080F83D20026843F200434C
:100FB000D2F804E0D2F808C0C4F201039A4205D086
:100FC00042F60043C4F201039A4204D14C682EF465
:100FD000700344EA030E4FF68F73CFF6FF530C688D
:100FE00003EA0E03896823432CF0800421435360F5
:100FF00091600121002280F83D1080F83C201046CD
:1010000010BD000070470000002804BF0120704799
:1010100010B5044690F83D0028B9002084F83C0043
:10102000204600F00DF8022084F83D002068211DC4
:1010300000F042FF012084F83D00002010BD0000B8
:1010400080B582B0006842F60041C4F201018842D6
:101050001CBF02B080BD41F26000C4F20200016812
:10106000002241F4006101600068002100F400608A
:10107000019001981920FFF75BFA192002B0BDE832
:101080008040FFF745BA000000680722C168C0F23F
:10109000010241F00101C16081681140062902D0BE
:1010A000B1F5803F02D10020704700BF016841F0D8
:1010B000010101600020704780B590F83C20012AB2
:1010C0004FF0020200F0B48080F83D20D0F800C05C
:1010D0008822DCF80830CFF6CE721A40CCF808200F
:1010E0000B686F2B22DD2F22C0F21002934247DCE7
:1010F000B3F1101F56DA702B00F0BE80B3F5005F1D
:1011000040F09080D1E901E3C968DCF8082043EAA7
:101110000E0322F47F4243EA01211143CCF8081068
:10112000DCF8081041F480417AE000BF2F2B33DD5A
:101130004F2B3BDC302B69D0402B73D1D1F804E02E
:10114000C968DCF82030DCF8202022F00102CCF85D
:101150002020DCF8182022F0F00242EA011123F0EE
:101160000A0242EA0E02CCF81810CCF82020DCF873
:1011700008104FF68872CFF6CF72114047314FE01A
:101180005F21C0F210018B4236DC3021C0F2100129
:101190008B423BD0402135E0C3B3102B36D0202BFF
:1011A00034D03FE032D020212CE000BF502B41D082
:1011B000602B37D1D1F804E0C968DCF8203023F087
:1011C0001003CCF82030DCF81830DCF8202023F4B1
:1011D000704322F0A00243EA013142EA0E12CCF839
:1011E0001810CCF82020DCF808104FF68872CFF6E3
:1011F000CF721140673113E06021C0F210018B42C1
:1012000004D07021C0F210018B420BD1DCF8081021
:101210004FF68872CFF6CF721140194341F00701A3
:10122000CCF808100121002280F83D1080F83C2005
:10123000104680BDD1F804E0C968DCF82030DCF845
:10124000202022F00102CCF82020DCF8182022F027
:10125000F00242EA011123F00A0242EA0E02CCF83F
:101260001810CCF82020DCF808104FF68872CFF662
:10127000CF7211405731D3E7D1E901E3C968DCF8F7
:10128000082043EA0E0322F47F4243EA012111437E
:10129000CCF80810DCF8081041F07701C0E7000036
:1012A0007047000010B5016804460869800744BF14
:1012B000C8685FEA807061D40869400744BFC868A5
:1012C0005FEA407066D40869000744BFC8685FEAF7
:1012D00000706DD40869C00644BFC8685FEAC0608A
:1012E00072D40869C0071CBFC8685FEAC07079D1B2
:1012F0000869000644BFC8685FEA00607AD40869DC
:10130000C00544BFC8685FEA006000F17B800869DF
:10131000400644BFC8685FEA406000F17B8008690E
:10132000800644BFC8685FEA806000F17B8008697E
:10133000C00244BFC8685FEAC02000F17B80086932
:10134000800244BFC8685FEA802000F17B800869A2
:10135000400244BFC8685FEA402000F17B80086912
:10136000000246BFC8685FEA002010BD6FF40002AB
:1013700020460A61BDE81040FFF744BE6FF002004E
:10138000086101202077886980076BD02046FFF72D
:1013900087FF6DE06FF00400086102202077886904
:1013A00010F4407F68D02046FFF77AFF6AE000BF64
:1013B0006FF00800086104202077C869800765D0B5
:1013C0002046FFF76DFF67E06FF01000086108200E
:1013D0002077C86910F4407F62D02046FFF760FF95
:1013E00064E000BF6FF001000861204600F066F87D
:1013F00021687DE76FF0800008612046FFF762FDFD
:1014000021687CE76FF4807008612046FFF758FD83
:1014100021687CE76FF040000861204600F050F83A
:1014200021687CE76FF0200008612046FFF74CFD43
:1014300021687CE76FF4801008612046FFF7A8FD63
:1014400021687CE76FF4001008612046FFF79EFDDD
:1014500021687CE76FF4800008612046FFF79AFD61
:1014600021687CE7204600F025F8204600F024F8AB
:101470002168002020771FE7204600F01BF8204657
:1014800000F01AF82168002020771CE7204600F0C1
:1014900011F8204600F010F821680020207719E7A5
:1014A000204600F007F8204600F006F821680020EA
:1014B000207716E770470000704700007047000073
:1014C00070470000FEE7000080B586B041F24C0096
:1014D000C4F20200016841F001010160006801A945
:1014E00000F0010001900198FF200190012002907E
:1014F00002200390002004904FF09040FEF7C6FEBB
:101500004FF09040FF210122FEF790FF06B080BD12
:1015100080B54FF0904001210022FEF787FF4FF485
:101520001670FEF79FFE4FF0904001210122FEF75A
:101530007DFF4FF0904002210022FEF777FF4FF42D
:101540001670FEF78FFE4FF0904002210122FEF749
:101550006DFF4FF0904004210022FEF767FF4FF42B
:101560001670FEF77FFE4FF0904004210122FEF737
:101570005DFF4FF0904008210022FEF757FF4FF427
:101580001670FEF76FFE4FF0904008210122FEF723
:101590004DFF4FF0904010210022FEF747FF4FF41F
:1015A0001670FEF75FFE4FF0904010210122FEF70B
:1015B0003DFF4FF0904020210022FEF737FF4FF40F
:1015C0001670FEF74FFE4FF0904020210122FEF7EB
:1015D0002DFF4FF0904040210022FEF727FF4FF4EF
:1015E0001670FEF73FFE4FF0904040210122FEF7BB
:1015F0001DFF4FF0904080210022FEF717FF4FF4AF
:101600001670FEF72FFE4FF0904080210122BDE8BA
:101610008040FEF70BBF000070B586B0002541F298
:101620004C000595C4F20200016840F2004441F00C
:10163000200101600168C4F6000401F0200100915E
:1016400000990168002241F0010101600168102643
:1016500001F0010100910099016841F0020101606F
:101660000068102100F00200009000982046FEF76C
:10167000DDFE0120CDE9020501A920460196049571
:10168000FEF704FE06B070BD10B594B000246846A5
:1016900034211394CDE911440F94CDE90D44FEF7A4
:1016A000BEFD40F2B40042F60041C2F20000C4F2B6
:1016B000010140F2E733A92280E81600C0E90334B3
:1016C000C0E90544FFF7A0FC002818BFFEF7C8FDDD
:1016D0004FF48050109040F2B400C2F2000010A904
:1016E000FFF7EAFC002818BFFEF7BAFD40F2B4008D
:1016F0000024C2F200000DA9CDE90D440F94FFF7BC
:101700004BFC002818BFFEF7ABFD40F2B400C2F25C
:101710000000694607940B94FFF7D8FB002818BF18
:10172000FEF79EFD14B010BDFEE7000070470000FC
:1017300010B5B0200021002400F0C0FA00200021E4
:1017400000F0BCFA1020002100F0B8FA00200121BE
:1017500000F0B4FA601C44B2B4F1FF3FF6DCB120F3
:101760000021002400F0AAFA0020002100F0A6FACF
:101770001020002100F0A2FA0020012100F09EFAC2
:10178000601C44B2B4F1FF3FF6DCB220002100241B
:1017900000F094FA0020002100F090FA10200021BF
:1017A00000F08CFA0020012100F088FA601C44B29D
:1017B000B4F1FF3FF6DCB3200021002400F07EFAF4
:1017C0000020002100F07AFA1020002100F076FAC3
:1017D0000020012100F072FA601C44B2B4F1FF3F16
:1017E000F6DCB4200021002400F068FA002000217B
:1017F00000F064FA1020002100F060FA00200121BE
:1018000000F05CFA601C44B2B4F1FF3FF6DCB52096
:101810000021002400F052FA0020002100F04EFACE
:101820001020002100F04AFA0020012100F046FAC1
:10183000601C44B2B4F1FF3FF6DCB6200021002466
:1018400000F03CFA0020002100F038FA10200021BE
:1018500000F034FA0020012100F030FA601C44B29C
:10186000B4F1FF3FF6DCB7200021002400F026FA97
:101870000020002100F022FA1020002100F01EFAC2
:101880000020012100F01AFA601C44B2B4F1FF3FBD
:10189000F6DC10BDF0B587B0002641F24C0006968C
:1018A000C4F20200016840F2004441F0020101600C
:1018B0000168C4F6000401F0020101910199016878
:1018C00002AD41F0010101600068012700F0010054
:1018D000019001984FF44050029020462946CDE9EE
:1018E00003760596FEF7D2FC20464FF440510122C4
:1018F000FEF79CFD4FF44070CDE902074FF0904099
:101900002946CDE90466FEF7C1FC4FF090404FF444
:1019100040710122FEF78AFD6420FEF7A3FCAE2091
:10192000002100F0CBF90020002100F0C7F91020C1
:10193000002100F0C3F94020002100F0BFF9812010
:10194000002100F0BBF9CF20002100F0B7F9A12061
:10195000002100F0B3F9C820002100F0AFF9A62063
:10196000002100F0ABF9A820002100F0A7F93F20EA
:10197000002100F0A3F9D320002100F09FF90020FE
:10198000002100F09BF9D520002100F097F9F0200C
:10199000002100F093F9D920002100F08FF9F12007
:1019A000002100F08BF9DA20002100F087F91220E5
:1019B000002100F083F9DB20002100F07FF94020B6
:1019C000002100F07BF92020002100F077F90220AF
:1019D000002100F073F98D20002100F06FF9142030
:1019E000002100F06BF9A420002100F067F9A62087
:1019F000002100F063F9AF20002100F05FF9AF2073
:101A0000002100F05BF9FFF793FEB020002100F009
:101A100055F91020002100F051F90120002100F0BB
:101A20004DF907B0F0BD0000F0B581B00646A1F158
:101A300050000C46C0B20021174600F03FF93009B3
:101A400000F110052846002100F038F906F00E00DC
:101A5000461C3046002100F031F940F20801C2F284
:101A600000017801085C01EB4717012100F026F91D
:101A70007878012100F022F9B878012100F01EF9F0
:101A8000F878012100F01AF93879012100F016F9EF
:101A90007879012100F012F9B879012100F00EF9EE
:101AA000F879012100F00AF9387A012100F006F9ED
:101AB000787A012100F002F9B87A012100F0FEF8ED
:101AC000F87A012100F0FAF8387B012100F0F6F8ED
:101AD000787B012100F0F2F8B87B012100F0EEF8EC
:101AE000F87B012100F0EAF8A4F14F00C0B2002118
:101AF00000F0E4F82846002100F0E0F8304600212C
:101B000000F0DCF8387C012100F0D8F8787C012165
:101B100000F0D4F8B87C012100F0D0F8F87C012165
:101B200000F0CCF8387D012100F0C8F8787D012163
:101B300000F0C4F8B87D012100F0C0F8F87D012163
:101B400000F0BCF8387E012100F0B8F8787E012161
:101B500000F0B4F8B87E012100F0B0F8F87E012161
:101B600000F0ACF8387F012100F0A8F8787F01215F
:101B700000F0A4F8B87F012100F0A0F8F87F01215F
:101B800001B0BDE8F04000F099B800002DE9F04741
:101B90008A46064640B2002844BF0AF1020A0026DF
:101BA000AAF15000C0B20021A2F1200400F086F892
:101BB000300900F110084046002100F07FF806F0DF
:101BC0000E0000F101094846002100F077F8E1B26B
:101BD00042F2BE020801C0F60002105C02EB0114E2
:101BE000012100F06BF86078A778E578267901216B
:101BF00000F064F83846012100F060F82846012121
:101C000000F05CF83046012100F058F860790121BD
:101C100000F054F8A079012100F050F8E07901219A
:101C200000F04CF8AAF14F00C0B2002100F046F8D5
:101C30004046002100F042F84846002100F03EF8FE
:101C4000207A012100F03AF8607A012100F036F89C
:101C5000A07A012100F032F8E07A012100F02EF89C
:101C6000207B012100F02AF8607B012100F026F89A
:101C7000A07B012100F022F8E07B0121BDE8F047C4
:101C800000F01CB8F0B581B0144612789AB10D4638
:101C900006460027F0B2E9B2D2B2FFF777FF083666
:101CA000F0B201377828F8B288BF0235225C88BFCD
:101CB0000026002AEED101B0F0BD0000B0B540F220
:101CC0000044C4F600040A460546002920464FF4A5
:101CD000005118BF0122FEF7A9FB20464FF48051A6
:101CE0000022FEF7A3FB4FF090404FF4007100225A
:101CF000FEF79CFBEA094FF090404FF48071FEF72D
:101D000095FB4FF090404FF400710122FEF78EFBDF
:101D10004FF090404FF400710022FEF787FBC5F3AF
:101D200080124FF090404FF48071FEF77FFB4FF030
:101D300090404FF400710122FEF778FB4FF0904085
:101D40004FF400710022FEF771FBC5F340124FF013
:101D500090404FF48071FEF769FB4FF090404FF4D4
:101D600000710122FEF762FB4FF090404FF40071CA
:101D70000022FEF75BFBC5F300124FF090404FF4DA
:101D80008071FEF753FB4FF090404FF40071012239
:101D9000FEF74CFB4FF090404FF400710022FEF72D
:101DA00045FBC5F3C0024FF090404FF48071FEF741
:101DB0003DFB4FF090404FF400710122FEF736FBDF
:101DC0004FF090404FF400710022FEF72FFBC5F357
:101DD00080024FF090404FF48071FEF727FB4FF0E8
:101DE00090404FF400710122FEF720FB4FF090402D
:101DF0004FF400710022FEF719FBC5F340024FF0CB
:101E000090404FF48071FEF711FB4FF090404FF47B
:101E100000710122FEF70AFB4FF090404FF4007171
:101E20000022FEF703FB05F001024FF090404FF453
:101E30008071FEF7FBFA4FF090404FF400710122E1
:101E4000FEF7F4FA20464FF480510122FEF7EEFA35
:101E500020464FF400510122BDE8B040FEF7E6BA3B
:101E60007047000070470000FEF7ECBA4EF688504D
:101E7000CEF20000016841F4700101604FF0006192
:101E800040F8801C7047000080B540F2B400C2F2F8
:101E90000000FFF707FA40F2B000C2F2000001684C
:101EA00001313229016038BF80BD00210160BDE8E9
:101EB0008040FFF72DBB000080B540F2FF7C026838
:101EC000C4F2000C604521DD40F60003C4F20003BB
:101ED000984224D043F20043C4F2010398421ED03A
:101EE00042F60043C4F20103984218D043F2FF3394
:101EF000C4F2010398421CDC604529DCB0F1804F3C
:101F00003CD040F20043C4F2000335E0B0F1804F12
:101F100005D040F20043C4F200039842E6D14B687A
:101F200022F070021A4343F2FF33C4F201039842D5
:101F3000E2DD44F2FF33C4F20103984212DC43F2C3
:101F40000043C4F20103984218D044F2000311E0A8
:101F500040F60003C4F2000398420FD042F600435B
:101F600008E000BF44F60003C4F20103984205D024
:101F700044F20043C4F20103984203D1CB6822F437
:101F800040721A434B6922F0800E8A6843EA0E03BE
:101F9000D1F800C00360C262A0F18042A2F596327F
:101FA0004FEAB222072AC0F828C007D8012303FA53
:101FB00002F212F0E50F1CBF0969016301214161C2
:101FC00080BD0000FEE7000094B0FEF749FA06ACC1
:101FD000201D3421FEF723F94FF40070FEF7E4FAD8
:101FE000022006904FF48070099040200A9000254E
:101FF00020460D95FEF7F6FC0F2001900120CDE95B
:10200000020501A80021CDE90455FEF761FBFFF7A9
:1020100003FBFFF759FAFFF737FB40F2B400C2F2B7
:102020000000FFF731F8FFF735FCFFF781FB13A441
:1020300014A500BF2E2000210122FFF7F5FC42204D
:1020400000212246FFF71EFE282003210222FFF76F
:10205000EBFC382003210322FFF7E6FC4820032194
:102060000422FFF7E1FC142006212A46FFF70AFEAE
:102070004FF4FA70FEF7F6F8DCE700BF3132313189
:102080000000000031303231343432313230370028
:1020900002E008C8121F08C1002AFAD17047704731
:1020A000002001E001C1121F002AFBD1704700008F
:1020B00000000000000001020304060708090000F8
:1020C0000000000000000000000000000000000010
:1020D00000F8000000000000003330000000001095
:1020E0000C06100C0600000000000000000040C0BC
:1020F0007840C0784000043F04043F0404000070AE
:1021000088FC08300000001820FF211E0000F008A5
:10211000F000E018000000211C031E211E0000F04A
:102120000888700000001E21232419272110101692
:102130000E00000000000000000000000000000091
:1021400000E0180402000000000718204000000210
:102150000418E00000000040201807000000404084
:1021600080F0804040000202010F010202000000E6
:1021700000F0000000000101011F0101010000004A
:1021800000000000000080B07000000000000000AF
:102190000000000000000001010101010101000038
:1021A00000000000000000303000000000000000CF
:1021B000000080601804006018060100000000E0C4
:1021C00010080810E000000F102020100F00001071
:1021D00010F8000000000020203F202000000070C8
:1021E00008080888700000302824222130000030C0
:1021F0000888884830000018202020110E000000B8
:10220000C02010F8000000070424243F240000F838
:102210000888880808000019212020110E0000E01D
:10222000108888180000000F112020110E000038BF
:102230000808C83808000000003F000000000070D7
:10224000880808887000001C222121221C0000E060
:1022500010080810E0000000312222110F000000D9
:1022600000C0C0000000000000303000000000008E
:1022700000800000000000008060000000000000FE
:102280008040201008000001020408102000404097
:1022900040404040400004040404040404000008DA
:1022A000102040800000002010080402010000708F
:1022B00048080808F0000000003036010000C03077
:1022C000C828E810E0000718272423140B0000009A
:1022D000C038E0000000203C23020227382008F824
:1022E000888888700000203F202020110E00C03018
:1022F000080808083800071820202010080008F8EF
:1023000008080810E000203F202020100F0008F8E7
:102310008888E8081000203F20202320180008F8B3
:102320008888E8081000203F200003000000C0302B
:1023300008080838000007182020221E020008F8AC
:1023400008000008F808203F210101213F20000873
:1023500008F8080800000020203F202000000000AE
:102360000808F8080800C08080807F00000008F896
:1023700088C028180800203F20012638200008F8CF
:10238000080000000000203F20202020300008F836
:10239000F800F8F80800203F003F003F200008F850
:1023A00030C00008F808203F200007183F00E01068
:1023B00008080810E0000F10202020100F0008F877
:1023C00008080808F000203F210101010000E0108A
:1023D00008080810E0000F18242438504F0008F8AF
:1023E000888888887000203F2000030C302000700F
:1023F0008808080838000038202121221C0018080D
:1024000008F8080818000000203F2000000008F825
:1024100008000008F808001F202020201F0008786E
:10242000880000C83808000007380E010000F808CE
:1024300000F80008F800033C0700073C03000818F8
:1024400068808068180820302C03032C302008385E
:10245000C800C83808000000203F20000000100815
:102460000808C8380800203826212020180000005D
:1024700000FE020202000000007F40404000000C0D
:1024800030C000000000000000010638C00000025B
:102490000202FE000000004040407F0000000000FB
:1024A000040202020400000000000000000000001E
:1024B000000000000000808080808080808000021A
:1024C0000204000000000000000000000000000006
:1024D0008080808000000019242222223F2008F8FA
:1024E000008080000000003F112020110E0000003D
:1024F000008080800000000E1120202011000000CC
:1025000000808088F800000E112020103F2000007D
:10251000808080800000001F222222221300008081
:1025200080F0888888180020203F202000000000CC
:10253000808080808000006B94949493600008F801
:10254000008080800000203F210000203F2000808C
:102550009898000000000020203F2020000000008C
:1025600000809898000000C08080807F000008F8FC
:10257000000080808000203F24022D3020000008D1
:1025800008F8000000000020203F2020000080808C
:10259000808080808000203F20003F20003F80809E
:1025A000008080800000203F210000203F200000AC
:1025B000808080800000001F202020201F0080805D
:1025C00000808000000080FFA12020110E0000008C
:1025D000008080808000000E112020A0FF8080807D
:1025E00080008080800020203F212000010000002A
:1025F00080808080800000332424242419000080FF
:1026000080E0808000000000001F2020000080800B
:10261000000000808000001F202020103F208080CC
:1026200080000080808000010E300806010080805C
:102630000080008080800F300C030C300F00008081
:102640008000808080000020312E0E3120008080AC
:1026500080000080808080818E70180601000080DC
:102660008080808080000021302C222130000000FA
:102670000000807C020200000000003F404000009B
:102680000000FF00000000000000FF00000000024A
:10269000027C800000000040403F00000000000677
:1026A000010102020404000000000000000000001C
:1026B000D026000800000020B00000009020000894
:1026C00080270008B000002048040000A020000877
:1026D000100000000100000000F848484848FF488A
:1026E000484848FC080000000007020202023F427E
:1026F0004242424740700000804020F807242424D2
:1027000025262424B4260400000000FF0001FD4516
:1027100045454545FD01000080844444241404FFE0
:102720000414242446C44000000808080949897D8F
:102730000D0B09080C080000102162069010FF1014
:10274000101010FF101000000404FE0382621B0230
:1027500002020A1362C302001022640C80FE02E22D
:10276000A2B2AEA2A2F322000404FE41300F201355
:102770005A827E020A1330000024F4000000000098
:04000005080001D915
:00000001FF
