:020000040800F2
:1000000000050020ED010008411800082516000831
:100010003D18000859020008E52100080000000012
:100020000000000000000000000000008120000827
:100030005D020008000000007D2000088520000807
:10004000070200080702000807020008070200086C
:10005000070200080702000807020008070200085C
:10006000070200080702000807020008070200084C
:10007000070200080702000807020008070200083C
:10008000070200080000000007020008070200083D
:10009000070200080702000807020008070200081C
:1000A00007020008A5200008070200080702000850
:1000B00007020008070200080702000807020008FC
:1000C00007020008070200080702000807020008EC
:1000D00007020008070200080702000807020008DC
:1000E00007020008070200080702000807020008CC
:1000F00007020008070200080702000800000000CD
:1001000000000000070200080000000007020008CD
:1001100007020008000000000702000807020008AC
:10012000070200080702000807020008070200088B
:10013000070200080000000000000000070200089D
:10014000070200080702000800000000000000008D
:10015000000000000000000000000000000000009F
:10016000000000000000000000000000070200087E
:10017000070200080000000000000000000000006E
:10018000000000000702000800000000000000005E
:10019000000000000000000000000000000000005F
:1001A000000000000000000007020008070200082D
:1001B000070200080702000807020008000000000C
:1001C000000000000702000800000000000000001E
:1001D0000702000807020008DFF80CD000F02AF838
:1001E00000480047E9210008000500200648804734
:1001F00006480047FEE7FEE7FEE7FEE7FEE7FEE70C
:10020000FEE7FEE7FEE7FEE789200008D9010008C7
:10021000D2B201E000F8012B491EFBD27047002248
:10022000F6E710B513460A4604461946FFF7F0FFF5
:10023000204610BD064C074D06E0E06840F0010383
:1002400094E8070098471034AC42F6D3FFF7C8FF94
:100250006829000888290008FEE7000070470000B0
:1002600070470000B0B5044600F0F4F8054640F2CF
:100270000000C2F200004068611C18BF044400BFC7
:1002800000F0E8F8401BA042FAD3B0BD2DE9F04FD2
:1002900082B041F20042C4F6000290420A684FF078
:1002A000060308BF0523002A009300F0BB8000F17D
:1002B00038434FEAB32740F2004A009BC4F2010AD8
:1002C000052F38BF3B464FF0010E002500260127C1
:1002D000009309E00A68043632FA07F307F10107D0
:1002E00005F1020500F09E80A7F1010C0EFA0CF951
:1002F00012EA0908EED04A6842F01004122C15D117
:100300006FF0030202EA5C020244D2F820B006F069
:100310001C030F24D1F810E09C402BEA04040EFAD1
:1003200003F3234313624A684FF0010E036803246A
:10033000AC406FEA040BA34302F00304AC40234338
:10034000122A036013D80EFA02F313F0061F0ED020
:100350008368CC6803EA0B03AC40234383604368A3
:10036000140923EA090304FA0CF423434360C36825
:100370008C6803EA0B03AC402343D200C360A9D5C9
:1003800041F26003C4F202031A684FF6084942F0D2
:1003900001021A601A68CFF6FF7902F00102019299
:1003A000019A2CF00302524452F809C006F00C04E2
:1003B0000F23A3402CEA030C009B03FA04F444EA45
:1003C0000C0342F80930DAF800C04B684CEA080424
:1003D000DA0358BF2CEA0804CAF80040DAF804C06F
:1003E0009A034CEA080458BF2CEA0804CAF80440EF
:1003F000DAF808C0DA024CEA080458BF2CEA08040C
:1004000040F20C4CCAF80840C4F2010CDCF80020A1
:100410009B0242EA080458BF22EA0804CCF80040D4
:1004200058E700BF02B0BDE8F08F00000069084047
:1004300018BF012070470000426928230A4208BF04
:100440001823C150704700001823002A08BF282332
:10045000C150704740F2FC00C2F2000000687047D3
:1004600040F2000040F2FC01C2F20000C2F20001C2
:1004700040680A68104408607047000080B5032097
:1004800000F090F8002000F009F800281CBF0120BF
:1004900080BD00F029F8002080BD000070B540F25A
:1004A0000006C2F200067168E1B1044640F2A800FD
:1004B000C2F200004FF47A720068B2FBF1F1B0FBB7
:1004C000F1F000F097FD0F2C4FF0010508D838B976
:1004D0004FF0FF3021460022002500F037F834604D
:1004E000284670BD012070BD82B041F25800C4F2B0
:1004F0000200816841F001018160816801F0010121
:1005000001910199016841F080510160006800F09B
:1005100080500090009847F20800C4F20000016883
:1005200021F48041016002B070470000002848BFFC
:10053000704700F01F01012202FA01F14EF2001291
:100540004009CEF2000242F82010704710B54EF676
:100550000C5CCEF2000CDCF80030C3F3022E8EF0FF
:100560000704042C28BF0424BEF103034FF0FF3E10
:100570000EFA04F438BF0023A14399400EFA03F3A6
:100580009A43114300F00F02043A624409010C320D
:1005900000F16043B0F1FF3FC8BF03F56442117042
:1005A00010BD00004EF60C51CEF200010A684FF665
:1005B000FF031A4060F30A2242F0806040F0FD70B1
:1005C000086070472DE9F04182B00446807841F21E
:1005D00088060007C4F2020602D400202FE000BF04
:1005E00056F8300C10F080580BD156F8300C40F013
:1005F000805046F8300C56F8300C00F080500190D6
:10060000019847F20007C4F20007386840F4807090
:100610003860FFF71FFF05463868C00500F1D68037
:10062000FFF718FF401B0228F6D90320B8F1000F8E
:1006300005D156F8301C21F0805146F8301C216855
:10064000CA0713D18A0719D44A071FD40A0725D429
:100650008A062BD44A0631D40A0637D4CA053DD4BB
:100660008A0543D44A0549D457E000BF326863681D
:1006700022F003021A4332608A07E5D53268A36884
:1006800022F00C021A4332604A07DFD53268E36871
:1006900022F030021A4332600A07D9D53268236942
:1006A00022F0C0021A4332608A06D3D532686369E9
:1006B00022F440621A4332604A06CDD53268A369FB
:1006C00022F440521A4332600A06C7D53268E36901
:1006D00022F440421A433260CA05C1D53268236A07
:1006E00022F440321A4332608A05BBD53268636A0D
:1006F00022F440221A4332604A050ED53268A36ABA
:1007000022F440121A43B3F5801F326005D156F827
:100710007C2C42F4801246F87C2C0A050ED53268F7
:10072000E36A22F440021A43B3F5800F326005D128
:1007300056F87C2C42F4801246F87C2CCA040ED564
:100740003268236B22F040721A43B3F1807F32602B
:1007500005D156F87C2C42F4801246F87C2C8A0491
:100760000ED53268636B22F040621A43B3F1006F1A
:10077000326005D156F87C2C42F4801246F87C2C6D
:100780004A040ED53268A36B22F040621A43B3F1DB
:10079000006F326005D156F87C2C42F4801246F886
:1007A0007C2C09040ED53168E26B21F040511143D5
:1007B000B2F1805F316005D156F87C1C41F4803184
:1007C00046F87C1C02B0BDE8F08100BFB06810F4B0
:1007D000407010D0216C88420BD0B068B16820F412
:1007E000407041F48031B160B16821F48031B16072
:1007F000B060C0070CD1B068216C20F44070084391
:10080000B0600020B8F1000F7FF419AF11E700BF0E
:10081000FFF720FE054641F2883700BFB068800729
:10082000E9D4FFF717FE401BB842F7D9FDE60000F8
:100830002DE9F04700286DD042F2000AC4F2020A06
:100840000446DAF800000D4600F00F0088420CD292
:10085000DAF8000020F00F002843CAF80000DAF8A8
:10086000000000F00F00A84254D1216841F20808AE
:10087000C807C4F2020803D1880740F1D880BDE060
:10088000606802283AD0032840D158F8082C920119
:1008900040D5D8F80420D8F8043042F2004702F0DE
:1008A0000302C3F30313C0F2F4070133032A04BFA6
:1008B00041F20027C0F27A07D8F80420B7FBF3F31F
:1008C000D8F80470C2F306225A43C7F341630227E3
:1008D00007EB4303B2FBF3F24BF20043C0F2C44315
:1008E0009A4261D9D8F8002012F0F00F51D0890750
:1008F0005AD5A168002957D14BE000BF58F8081C11
:1009000089035CBF0120BDE8F08707E058F8081CA8
:10091000490503D40120BDE8F08700BFD8F80010D6
:1009200001F00C0104293FD0D8F8001001F00C01AF
:10093000082939D0D8F8001001F00C010C2933D166
:10094000D8F80410D8F8042042F2004301F0030163
:10095000C2F30312C0F2F4030132032904BF41F2CF
:100960000023C0F27A03D8F80410B3FBF2F2D8F8EF
:100970000430C1F306215143C3F34162022303EB68
:100980004202B1FBF2F14BF20042C0F2C44291428A
:100990000AD9D8F80010082262F307114FF00109B4
:1009A000C8F8001002E000BF4FF00009D8F80010AE
:1009B00021F003010843C8F80000FFF74BFD06468D
:1009C00041F28837D8F80000616800F00C00B0EB05
:1009D000810F07D0FFF73EFD801BB842F2D90320FC
:1009E000BDE8F0872168880708D4B9F1000F1ED050
:1009F000D8F8000020F0F00017E000BF480705D548
:100A0000D8F8000040F4E060C8F80000080706D5F8
:100A1000D8F80000072262F30D20C8F80000D8F8CB
:100A20000000A26820F0F0001043C8F80000DAF8D7
:100A3000000000F00F00A8421BD9DAF8000020F0F7
:100A40000F002843CAF80000FFF704FD064641F2F4
:100A5000883700BFDAF8000000F00F00A84207D086
:100A6000FFF7F8FC801BB842F4D90320BDE8F087FB
:100A70002168480707D5D8F80000E26820F4E06054
:100A80001043C8F80000080708D5D8F8000021690D
:100A900020F4605040EAC100C8F80000D8F8000017
:100AA00042F20041C0F2F40100F00C0004280846B4
:100AB0002DD0D8F8000000F00C00082841F20020EA
:100AC000C0F27A0023D0D8F8002002F00C020C2AE1
:100AD0001CD1D8F80420D8F8043002F00302C3F384
:100AE00003130133032A08BF0146D8F80400B1FB01
:100AF000F3F1D8F80420C0F306204843C2F3416163
:100B0000022202EB4101B0FBF1F000E00020D8F836
:100B1000001042F26632C1F30311C0F60002515CCC
:100B200040F2A80201F01F0120FA01F140F200009A
:100B3000C2F200000068C2F200021160BDE8F04796
:100B4000FFF7ACBC2DE9F04182B0002800F006812F
:100B50000446007841F20006C007C4F2020655D1EF
:100B60002078800774D42078000700F197802078DF
:100B7000400700F1B7802078800600F10781E06926
:100B8000002840D0B16801F00C010C2940F05681DA
:100B9000012800F0E380F068216A00F003028A4235
:100BA00040F0DC80626A6FF00F0300F0F00103EBAD
:100BB0000212914240F0D280A16A00F4FE42B2EBF0
:100BC000012F40F0CB80E16A00F07842B2EBC16FB8
:100BD00040F0C480226B0023CFF6E07303EB025297
:100BE00000F4C0016FF31402914240F0B780616BD2
:100BF0004FF07E4202EB016100F0C06001F07E41E7
:100C0000884240F0AB800020F1E100BFB06800F006
:100C10000C01F06808295BD0032281F00C0122EA64
:100C200000000844B0FA80F0400951D16068B0F586
:100C3000803F07D0B0F5A02F40F0D680306840F458
:100C400080203060306840F480303060D7E000BFF2
:100C5000B068F16800F00C00042869D001F00301CD
:100C600080F00C0081F002010844B0FA80F04009E5
:100C70005ED1E1683068002900F0CE8040F48070D9
:100C80003060FFF7E7FB05463068400500F1EC8077
:100C9000FFF7E0FB401B0228F6D920E16169D6F896
:100CA0009400002900F08C8040F00100C6F8940008
:100CB000FFF7D0FB054600BFD6F8940080073FF54C
:100CC00056AFFFF7C7FB401B0228F5D907E100BF6D
:100CD000306880037FF544AF606800287FF440AF40
:100CE0003CE000BFB06D10F0805808D1B06D40F00E
:100CF0008050B065B06D00F080500190019847F2CF
:100D00000007C4F200073868C0052BD4386840F4E7
:100D100080703860FFF79EFB054600BF3868C0054D
:100D200020D4FFF797FB401B0228F7D9D7E000BF7C
:100D30003068400501D5E06880B17068216920F015
:100D4000FE4040EA0160706040F20000C2F2000024
:100D50000068FFF7A3FB00283FF405AF012002B0B5
:100D6000BDE8F081A068012808D0052840F09A80ED
:100D7000D6F8900040F00400C6F89000D6F8900035
:100D800040F00100C6F890009AE000BFA169D6F8D3
:100D90009800002970D040F00100C6F89800FFF7D5
:100DA00059FB0546D6F8980080073FF5E8AEFFF7F7
:100DB00051FB401B02284FF00300F3D917E100BF9D
:100DC00020F00100C6F89400FFF744FB054600BF81
:100DD000D6F8940080077FF5CAAEFFF73BFB401BB7
:100DE0000228F5D97BE000BF3168002821F480316A
:100DF0003160316821F48021316000F08F80FFF78D
:100E000029FB0546306880033FF5AAAEFFF722FBB9
:100E1000401B6428F6D962E020F480703060FFF750
:100E200019FB0546306840057FF59DAEFFF712FBC4
:100E3000401B02284FF00300F4D9D8E031680228A3
:100E400021F0807131604FD1FFF704FB054600BFF0
:100E50003068800140F18E80FFF7FCFA401B0228C9
:100E60004FF00300F4D9C2E07068216920F0FE4021
:100E700040EA0160706076E620F00100C6F8980054
:100E8000FFF7E8FA054600BFD6F8980080077FF51F
:100E900076AEFFF7DFFA401B02284FF00300F3D9CC
:100EA000A5E000BFD6F89010002821F00101C6F897
:100EB0009010D6F8901021F00401C6F890103DD0A3
:100EC000FFF7C8FA054641F2883700BFD6F8900010
:100ED000800745D4FFF7BEFA401BB842F6D903207D
:100EE00002B0BDE8F08100BFF0684FF6FF7120F05E
:100EF0000300F060F068CFF6EE610840F060FFF7A5
:100F0000A9FA0446306880017FF57DAEFFF7A2FAAA
:100F1000001B02284FF00300F4D968E0FFF79AFAAB
:100F2000054600BF306880037FF51AAEFFF792FADE
:100F3000401B64284FF00300F4D958E0FFF78AFA09
:100F4000054641F2883700BFD6F89000800707D5E4
:100F5000FFF780FA401BB8424FF00300F4D946E097
:100F6000B8F1000F7FF407AEB06D20F08050B0658F
:100F700001E600BFF06848F20C01C0F29F1104F1D5
:100F8000200700EA010C8ECF6FF00F00D4E90C545B
:100F900000EB02100022CFF6E07241EA0C0102EBF6
:100FA000055208436FF314024FF07E4540EA0320D8
:100FB00005EB0465104305F07E4540EAC760284311
:100FC000F060306840F080703060F06840F0807011
:100FD000F060FFF73FFA0446306880013FF513AE3A
:100FE000FFF738FA001B02284FF00300F4D902B0D3
:100FF000BDE8F081411E0020B0EB116F1CBF012045
:1010000070474EF21002CEF2000251604EF62351AC
:10101000CEF20001F0230B70072190601160704741
:10102000704700007047000070470000F0B590F86E
:101030003C20012A04BF0220F0BDD1E90232D1E9EF
:1010400000CE22F47C5223F470531A4348F2FF730B
:10105000CFF6F07303EA0E0342EA030E0A692CF49A
:1010600077234EEA030C22F476224B6942EA0C0203
:101070001A430B6B22F4742C23F470238A6943EA1D
:101080000C0343EA0243026843F2004EC4F2010E2D
:1010900042F6004C7245C4F2010C01D0624503D106
:1010A000CC6923F080532343724501D0624517D1A8
:1010B00001F12006002770CECFF6F04723F07C73B5
:1010C00007EA0656334324F000742343724543EA8B
:1010D000050301D0624503D1C96A23F000530B43D5
:1010E0000021536480F83C100846F0BD70470000B2
:1010F000704700007047000010B590F83C20012AAE
:101100004FF002022BD080F83D20026843F20043EA
:10111000D2F804E0D2F808C0C4F201039A4205D024
:1011200042F60043C4F201039A4204D14C682EF403
:10113000700344EA030E4FF68F73CFF6FF530C682B
:1011400003EA0E03896823432CF080042143536093
:1011500091600121002280F83D1080F83C2010466B
:1011600010BD000070470000002804BF0120704738
:1011700010B5044690F83D0028B9002084F83C00E2
:10118000204600F00DF8022084F83D002068211D63
:1011900000F0A2FF012084F83D00002010BD0000F7
:1011A00080B582B0006842F60041C4F20101884275
:1011B0001CBF02B080BD41F26000C4F202000168B1
:1011C000002241F4006101600068002100F4006029
:1011D000019001981920FFF7B9F9192002B0BDE874
:1011E0008040FFF7A3B9000000680722C168C0F281
:1011F000010241F00101C16081681140062902D05D
:10120000B1F5803F02D10020704700BF016841F076
:10121000010101600020704780B590F83C20012A50
:101220004FF0020200F0B48080F83D20D0F800C0FA
:101230008822DCF80830CFF6CE721A40CCF80820AD
:101240000B686F2B22DD2F22C0F21002934247DC85
:10125000B3F1101F56DA702B00F0BE80B3F5005FBB
:1012600040F09080D1E901E3C968DCF8082043EA46
:101270000E0322F47F4243EA01211143CCF8081007
:10128000DCF8081041F480417AE000BF2F2B33DDF9
:101290004F2B3BDC302B69D0402B73D1D1F804E0CD
:1012A000C968DCF82030DCF8202022F00102CCF8FC
:1012B0002020DCF8182022F0F00242EA011123F08D
:1012C0000A0242EA0E02CCF81810CCF82020DCF812
:1012D00008104FF68872CFF6CF72114047314FE0B9
:1012E0005F21C0F210018B4236DC3021C0F21001C8
:1012F0008B423BD0402135E0C3B3102B36D0202B9E
:1013000034D03FE032D020212CE000BF502B41D020
:10131000602B37D1D1F804E0C968DCF8203023F025
:101320001003CCF82030DCF81830DCF8202023F44F
:10133000704322F0A00243EA013142EA0E12CCF8D7
:101340001810CCF82020DCF808104FF68872CFF681
:10135000CF721140673113E06021C0F210018B425F
:1013600004D07021C0F210018B420BD1DCF80810C0
:101370004FF68872CFF6CF721140194341F0070142
:10138000CCF808100121002280F83D1080F83C20A4
:10139000104680BDD1F804E0C968DCF82030DCF8E4
:1013A000202022F00102CCF82020DCF8182022F0C6
:1013B000F00242EA011123F00A0242EA0E02CCF8DE
:1013C0001810CCF82020DCF808104FF68872CFF601
:1013D000CF7211405731D3E7D1E901E3C968DCF896
:1013E000082043EA0E0322F47F4243EA012111431D
:1013F000CCF80810DCF8081041F07701C0E70000D5
:101400007047000010B5016804460869800744BFB2
:10141000C8685FEA807061D40869400744BFC86843
:101420005FEA407066D40869000744BFC8685FEA95
:1014300000706DD40869C00644BFC8685FEAC06028
:1014400072D40869C0071CBFC8685FEAC07079D150
:101450000869000644BFC8685FEA00607AD408697A
:10146000C00544BFC8685FEA006000F17B8008697E
:10147000400644BFC8685FEA406000F17B800869AD
:10148000800644BFC8685FEA806000F17B8008691D
:10149000C00244BFC8685FEAC02000F17B800869D1
:1014A000800244BFC8685FEA802000F17B80086941
:1014B000400244BFC8685FEA402000F17B800869B1
:1014C000000246BFC8685FEA002010BD6FF400024A
:1014D00020460A61BDE81040FFF744BE6FF00200ED
:1014E000086101202077886980076BD02046FFF7CC
:1014F00087FF6DE06FF004000861022020778869A3
:1015000010F4407F68D02046FFF77AFF6AE000BF02
:101510006FF00800086104202077C869800765D053
:101520002046FFF76DFF67E06FF0100008610820AC
:101530002077C86910F4407F62D02046FFF760FF33
:1015400064E000BF6FF001000861204600F066F81B
:1015500021687DE76FF0800008612046FFF762FD9B
:1015600021687CE76FF4807008612046FFF758FD22
:1015700021687CE76FF040000861204600F050F8D9
:1015800021687CE76FF0200008612046FFF74CFDE2
:1015900021687CE76FF4801008612046FFF7A8FD02
:1015A00021687CE76FF4001008612046FFF79EFD7C
:1015B00021687CE76FF4800008612046FFF79AFD00
:1015C00021687CE7204600F025F8204600F024F84A
:1015D0002168002020771FE7204600F01BF82046F6
:1015E00000F01AF82168002020771CE7204600F060
:1015F00011F8204600F010F821680020207719E744
:10160000204600F007F8204600F006F82168002088
:10161000207716E770470000704700007047000011
:1016200070470000FEE7000080B586B041F24C0034
:10163000C4F20200016841F001010160006801A9E3
:1016400000F001000190019840F2FF40019001205C
:1016500002900020CDE903004FF09040FEF716FE07
:101660004FF0904040F2FE410122FEF7EDFE4FF0B8
:10167000904001210022FEF7E7FE06B080BD000089
:10168000B0B504464FF090404FF480610122FEF760
:10169000DBFE4FF0904002210122FEF7D5FE4FF015
:1016A000904004210122FEF7CFFE4FF09040082128
:1016B0000122FEF7C9FE4FF0904010210122FEF7F3
:1016C000C3FE4FF0904020210122FEF7BDFE4FF0F7
:1016D000904040210122FEF7B7FE4FF0904080215C
:1016E0000122FEF7B1FE40F2B805C2F200052868FB
:1016F0000AA131F810104FF090400022FEF7A4FE2E
:1017000029682CB1481EB8BF07202860B0BD00BFB3
:10171000481C0629C8BF00202860B0BD0004020094
:1017200004000800100020004000800070B586B062
:10173000002541F24C000595C4F20200016840F218
:10174000004441F0200101600168C4F6000401F08A
:101750002001009100990168002241F0010101601F
:101760000168102601F0010100910099016841F023
:10177000020101600068102100F002000090009852
:101780002046FEF761FE0120CDE9020501A92046B1
:1017900001960495FEF77AFD06B070BD10B594B0C1
:1017A0000024684634211394CDE911440F94CDE907
:1017B0000D44FEF734FD40F2BC0042F60041C2F297
:1017C0000000C4F2010140F2E733A92280E81600CC
:1017D000C0E90334C0E90544FFF7C6FC002818BF80
:1017E000FEF73EFD4FF48050109040F2BC00C2F274
:1017F000000010A9FFF710FD002818BFFEF730FD0C
:1018000040F2BC000024C2F200000DA9CDE90D4455
:101810000F94FFF771FC002818BFFEF721FD40F27E
:10182000BC00C2F20000694607940B94FFF7FEFB70
:10183000002818BFFEF714FD14B010BDFEE700002D
:101840007047000010B5B0200021002400F044FBD8
:101850000020002100F040FB1020002100F03CFBA4
:101860000020012100F038FB601C44B2B4F1FF3FBE
:10187000F6DCB1200021002400F02EFB0020002126
:1018800000F02AFB1020002100F026FB002001219F
:1018900000F022FB601C44B2B4F1FF3FF6DCB22042
:1018A0000021002400F018FB0020002100F014FBB0
:1018B0001020002100F010FB0020012100F00CFBA3
:1018C000601C44B2B4F1FF3FF6DCB32000210024D9
:1018D00000F002FB0020002100F0FEFA10200021A1
:1018E00000F0FAFA0020012100F0F6FA601C44B280
:1018F000B4F1FF3FF6DCB4200021002400F0ECFA44
:101900000020002100F0E8FA1020002100F0E4FAA5
:101910000020012100F0E0FA601C44B2B4F1FF3F66
:10192000F6DCB5200021002400F0D6FA00200021CA
:1019300000F0D2FA1020002100F0CEFA00200121A0
:1019400000F0CAFA601C44B2B4F1FF3FF6DCB620E6
:101950000021002400F0C0FA0020002100F0BCFAB1
:101960001020002100F0B8FA0020012100F0B4FAA4
:10197000601C44B2B4F1FF3FF6DCB7200021002424
:1019800000F0AAFA0020002100F0A6FA10200021A1
:1019900000F0A2FA0020012100F09EFA601C44B27F
:1019A000B4F1FF3FF6DC10BDF0B587B0002641F280
:1019B0004C000696C4F20200016840F2004441F077
:1019C000020101600168C4F6000401F00201019106
:1019D0000199016802AD41F0010101600068012731
:1019E00000F00100019001984FF440500290204611
:1019F0002946CDE903760596FEF748FC20464FF4CC
:101A000040510122FEF720FD4FF44070CDE902075E
:101A10004FF090402946CDE90466FEF737FC4FF0C1
:101A200090404FF440710122FEF70EFD6420FEF756
:101A300019FCAE20002100F04FFA0020002100F038
:101A40004BFA1020002100F047FA4020002100F05E
:101A500043FA8120002100F03FFACF20002100F05E
:101A60003BFAA120002100F037FAC820002100F045
:101A700033FAA620002100F02FFAA820002100F060
:101A80002BFA3F20002100F027FAD320002100F09C
:101A900023FA0020002100F01FFAD520002100F0D9
:101AA0001BFAF020002100F017FAD920002100F0E5
:101AB00013FAF120002100F00FFADA20002100F0E3
:101AC0000BFA1220002100F007FADB20002100F0C1
:101AD00003FA4020002100F0FFF92020002100F04F
:101AE000FBF90220002100F0F7F98D20002100F021
:101AF000F3F91420002100F0EFF9A420002100F0F8
:101B0000EBF9A620002100F0E7F9AF20002100F05A
:101B1000E3F9AF20002100F0DFF9FFF793FEB020DA
:101B2000002100F0D9F91020002100F0D5F90120A2
:101B3000002100F0D1F907B0F0BD0000F0B581B090
:101B40000646A1F150000C46C0B20021174600F035
:101B5000C3F9300900F110052846002100F0BCF956
:101B600006F00E00461C3046002100F0B5F940F2A8
:101B70000801C2F200017801085C01EB471701215E
:101B800000F0AAF97878012100F0A6F9B8780121CF
:101B900000F0A2F9F878012100F09EF938790121CE
:101BA00000F09AF97879012100F096F9B8790121CD
:101BB00000F092F9F879012100F08EF9387A0121CC
:101BC00000F08AF9787A012100F086F9B87A0121CB
:101BD00000F082F9F87A012100F07EF9387B0121CA
:101BE00000F07AF9787B012100F076F9B87B0121C9
:101BF00000F072F9F87B012100F06EF9A4F14F00BA
:101C0000C0B2002100F068F92846002100F064F914
:101C10003046002100F060F9387C012100F05CF9C9
:101C2000787C012100F058F9B87C012100F054F9CA
:101C3000F87C012100F050F9387D012100F04CF9C9
:101C4000787D012100F048F9B87D012100F044F9C8
:101C5000F87D012100F040F9387E012100F03CF9C7
:101C6000787E012100F038F9B87E012100F034F9C6
:101C7000F87E012100F030F9387F012100F02CF9C5
:101C8000787F012100F028F9B87F012100F024F9C4
:101C9000F87F012101B0BDE8F04000F01DB900005F
:101CA0002DE9F0478A46064640B2002844BF0AF1B3
:101CB000020A0026AAF15000C0B20021A2F12004BD
:101CC00000F00AF9300900F110084046002100F048
:101CD00003F906F00E0000F101094846002100F06A
:101CE000FBF8E1B242F276320801C0F60002105C65
:101CF00002EB0114012100F0EFF86078A778E57895
:101D00002679012100F0E8F83846012100F0E4F8D6
:101D10002846012100F0E0F83046012100F0DCF80F
:101D20006079012100F0D8F8A079012100F0D4F801
:101D3000E079012100F0D0F8AAF14F00C0B20021F3
:101D400000F0CAF84046002100F0C6F848460021DD
:101D500000F0C2F8207A012100F0BEF8607A01217B
:101D600000F0BAF8A07A012100F0B6F8E07A01217B
:101D700000F0B2F8207B012100F0AEF8607B012179
:101D800000F0AAF8A07B012100F0A6F8E07B012179
:101D9000BDE8F04700F0A0B82DE9F04F85B0002B6A
:101DA0000491039078D00E981C464508981E009028
:101DB00058421746591E00265FFA80FA42F2107800
:101DC0004FF0000B4FF000090291019211E000BFAB
:101DD0004FF0010B039940F0300205FB0611D2B21F
:101DE000C8B20499FFF75CFF0136A64209F1010968
:101DF00052D06FEA0900C0B2504501D1012027E05E
:101E00000099F043891BC9B2032900EB040101D2F8
:101E1000012009E001F0FC02002301200433DFB2BD
:101E2000974200FB08F0F9D1019F11F003010FD098
:101E3000012903D100EB8000400009E04FF47A72E1
:101E4000424302294FF0640108BF00FB01F2104633
:101E5000B7FBF0F04CF6CD41CCF6CC41A0FB011223
:101E6000D10801EB8101BBF1000FA0EB4100B1D122
:101E70000299B142AEDD0028AAD10398049905FB6E
:101E800006002022C0B2FFF70BFF4FF0000B013617
:101E9000A64209F10109ACD105B0BDE8F08F000000
:101EA000F0B581B0144612789AB10D460646002767
:101EB000F0B2E9B2D2B2FFF7F3FE0836F0B2013762
:101EC0007828F8B288BF0235225C88BF0026002A35
:101ED000EED101B0F0BD0000B0B540F20044C4F650
:101EE00000040A460546002920464FF4005118BF59
:101EF0000122FEF7A9FA20464FF480510022FEF796
:101F0000A3FA4FF090404FF400710022FEF79CFAC4
:101F1000EA094FF090404FF48071FEF795FA4FF0C8
:101F200090404FF400710122FEF78EFA4FF090407E
:101F30004FF400710022FEF787FAC5F380124FF0CC
:101F400090404FF48071FEF77FFA4FF090404FF4CD
:101F500000710122FEF778FA4FF090404FF40071C3
:101F60000022FEF771FAC5F340124FF090404FF493
:101F70008071FEF769FA4FF090404FF40071012232
:101F8000FEF762FA4FF090404FF400710022FEF726
:101F90005BFAC5F300124FF090404FF48071FEF7EA
:101FA00053FA4FF090404FF400710122FEF74CFAC3
:101FB0004FF090404FF400710022FEF745FAC5F350
:101FC000C0024FF090404FF48071FEF73DFA4FF0A1
:101FD00090404FF400710122FEF736FA4FF0904026
:101FE0004FF400710022FEF72FFAC5F380024FF084
:101FF00090404FF48071FEF727FA4FF090404FF475
:1020000000710122FEF720FA4FF090404FF400716A
:102010000022FEF719FAC5F340024FF090404FF44A
:102020008071FEF711FA4FF090404FF400710122D9
:10203000FEF70AFA4FF090404FF400710022FEF7CD
:1020400003FA05F001024FF090404FF48071FEF763
:10205000FBF94FF090404FF400710122FEF7F4F9C4
:1020600020464FF480510122FEF7EEF920464FF44E
:1020700000510122BDE8B040FEF7E6B9704700000C
:1020800070470000FEF7ECB94EF68850CEF2000023
:10209000016841F4700101604FF0006140F8801C5C
:1020A0007047000080B540F2BC00C2F20000FFF7AC
:1020B000A9F940F2B001C2F200014868421CB0F533
:1020C000FA7F4A60B8BF80BD087800224A60BDE848
:1020D0008040FFF7D5BA000080B540F2FF7C02686F
:1020E000C4F2000C604521DD40F60003C4F2000399
:1020F000984224D043F20043C4F2010398421ED018
:1021000042F60043C4F20103984218D043F2FF3371
:10211000C4F2010398421CDC604529DCB0F1804F19
:102120003CD040F20043C4F2000335E0B0F1804FF0
:1021300005D040F20043C4F200039842E6D14B6858
:1021400022F070021A4343F2FF33C4F201039842B3
:10215000E2DD44F2FF33C4F20103984212DC43F2A1
:102160000043C4F20103984218D044F2000311E086
:1021700040F60003C4F2000398420FD042F6004339
:1021800008E000BF44F60003C4F20103984205D002
:1021900044F20043C4F20103984203D1CB6822F415
:1021A00040721A434B6922F0800E8A6843EA0E039C
:1021B000D1F800C00360C262A0F18042A2F596325D
:1021C0004FEAB222072AC0F828C007D8012303FA31
:1021D00002F212F0E50F1CBF0969016301214161A0
:1021E00080BD0000FEE70000A6B0FEF747F902AC94
:1021F000002504F108003C211E95CDE91C55CDE9D0
:102200001A55FEF70CF84FF480301990022003277E
:10221000552101261F90CDE92070CDE92210CDE98E
:10222000240018A81896FEF78DFC0F20CDE913079F
:1022300013A80821CDE915551795FEF7F9FA2046A0
:10224000CDE90265FEF7BEF9FFF770FAFFF7ECF98A
:10225000FFF7A4FA40F2BC00C2F20000FEF7C4FF90
:10226000FFF7A2FBFFF7EEFA082000210022FFF79C
:1022700065FC182000210122FFF760FC28A228201D
:102280000021FFF70DFE482000210222FFF756FC37
:10229000582000210322FFF751FC6820002104226E
:1022A000FFF74CFC20A214200321FFF7F9FD40F2B8
:1022B000B00640F20044C2F200061027C4F6000443
:1022C0001CA50FE032680020062103230097FFF7CA
:1022D00063FD20461021FEF7AFF8002006212A46B4
:1022E000FFF7DEFD4FF090400121FEF79FF8012837
:1022F000E8D16420FDF7B6FF4FF090400121FEF7D2
:1023000095F8012804D13068B0FA80F040093060B7
:102310004FF090400121FEF789F80128F8D0D1E76D
:102320003132313100000000313032313434313952
:10233000313038004C454420506F736974697665BC
:1023400020466C6F7700000002E008C8121F08C129
:10235000002AFAD170477047002001E001C1121F26
:10236000002AFBD1704700000000000000000102BD
:102370000304060708090000000000000000000038
:10238000000000000000000000F800000000000055
:1023900000333000000000100C06100C0600000096
:1023A00000000000000040C07840C0784000043FBA
:1023B00004043F040400007088FC0830000000188A
:1023C00020FF211E0000F008F000E01800000021AE
:1023D0001C031E211E0000F00888700000001E2152
:1023E00023241927211010160E0000000000000001
:1023F000000000000000000000E0180402000000DF
:1024000000071820400000020418E000000000400F
:10241000201807000000404080F080404000020289
:10242000010F01020200000000F0000000000101A5
:10243000011F01010100000000000000000080B049
:10244000700000000000000000000000000000011B
:102450000101010101010000000000000000003046
:1024600030000000000000000000806018040060E0
:1024700018060100000000E010080810E000000F3E
:10248000102020100F00001010F8000000000020A5
:10249000203F2020000000700808088870000030ED
:1024A0002824222130000030088888483000001895
:1024B000202020110E000000C02010F800000007AE
:1024C0000424243F240000F8088888080800001924
:1024D000212020110E0000E0108888180000000F55
:1024E000112020110E0000380808C838080000002C
:1024F000003F000000000070880808887000001C81
:10250000222121221C0000E010080810E000000039
:10251000312222110F00000000C0C00000000000A6
:1025200000303000000000000080000000000000CB
:1025300080600000000000008040201008000001C2
:102540000204081020004040404040404000040485
:10255000040404040400000810204080000000204F
:10256000100804020100007048080808F00000008C
:10257000003036010000C030C828E810E00007181D
:10258000272423140B000000C038E0000000203C8A
:1025900023020227382008F8888888700000203F2E
:1025A000202020110E00C030080808083800071845
:1025B00020202010080008F808080810E000203F3C
:1025C000202020100F0008F88888E8081000203F1D
:1025D00020202320180008F88888E8081000203FF1
:1025E000200003000000C030080808380000071869
:1025F0002020221E020008F808000008F808203FEA
:10260000210101213F20000808F8080800000020EF
:10261000203F2020000000000808F8080800C080C3
:1026200080807F00000008F888C028180800203F3C
:1026300020012638200008F8080000000000203F94
:1026400020202020300008F8F800F8F80800203F8B
:10265000003F003F200008F830C00008F808203F85
:10266000200007183F00E01008080810E0000F10D5
:10267000202020100F0008F808080808F000203F6C
:10268000210101010000E01008080810E0000F1807
:10269000242438504F0008F8888888887000203F2C
:1026A0002000030C3020007088080808380000382B
:1026B000202121221C00180808F808081800000032
:1026C000203F2000000008F808000008F808001F5C
:1026D000202020201F000878880000C8380800004B
:1026E00007380E010000F80800F80008F800033C65
:1026F0000700073C0300081868808068180820302D
:102700002C03032C30200838C800C838080000000B
:10271000203F2000000010080808C83808002038B2
:10272000262120201800000000FE02020200000006
:10273000007F40404000000C30C00000000000005E
:1027400000010638C00000020202FE000000004046
:1027500040407F000000000004020202040000006C
:102760000000000000000000000000000000808069
:102770008080808080800002020400000000000051
:102780000000000000000000808080800000001930
:10279000242222223F2008F8008080000000003F11
:1027A000112020110E000000008080800000000E2B
:1027B000112020201100000000808088F800000E09
:1027C000112020103F200000808080800000001F2A
:1027D000222222221300008080F08888881800209E
:1027E000203F202000000000808080808000006B5F
:1027F00094949493600008F8008080800000203F4B
:10280000210000203F200080989800000000002058
:10281000203F20200000000000809898000000C0A9
:102820008080807F000008F8000080808000203FCA
:1028300024022D302000000808F8000000000020CD
:10284000203F202000008080808080808000203F0A
:1028500020003F20003F8080008080800000203FDB
:10286000210000203F200000808080800000001FA9
:10287000202020201F00808000808000000080FF3A
:10288000A12020110E000000008080808000000E3A
:10289000112020A0FF808080800080808000202088
:1028A0003F212000010000008080808080000033F4
:1028B000242424241900008080E08080000000008F
:1028C000001F202000008080000000808000001F8A
:1028D000202020103F208080800000808080000128
:1028E0000E300806010080800080008080800F305C
:1028F0000C030C300F0000808000808080000020DE
:10290000312E0E3120008080800000808080808108
:102910008E70180601000080808080808000002179
:10292000302C2221300000000000807C02020000D8
:102930000000003F404000000000FF0000000000D9
:102940000000FF0000000002027C80000000004048
:10295000403F0000000000060101020204040000E4
:10296000000000000000000088290008000000208E
:10297000B000000048230008382A0008B0000020FA
:10298000500400005823000810000000010000005F
:1029900000F848484848FF48484848FC08000000FC
:1029A0000007020202023F424242424740700000DA
:1029B000804020F80724242425262424B42604005B
:1029C000000000FF0001FD4545454545FD010000B3
:1029D0001010D0FF90104242E252CA4642E040003E
:1029E000040300FF0021104C23184780403F0000E3
:1029F00020222A2AAA6A3A2F2A6AAA2A2A222000F0
:102A000004040201FF4949494949FF010206020045
:102A10000000F888888888087F880A0C08C80000A9
:102A200040201F0008100F4020131C244380F0009A
:082A30000024F4000000000086
:04000005080001D915
:00000001FF
